:020000040800F2
:1000000000000220D9260008291E00082D1E000825
:10001000311E0008351E0008391E000800000000CF
:100020000000000000000000000000007919000836
:100030003D1E000800000000351900086D1800087A
:100040002927000829270008292700082927000850
:100050002927000829270008292700082927000840
:100060002927000829270008292700082927000830
:100070002927000829270008292700082927000820
:10008000411E000829270008292700082927000801
:100090002927000829270008292700082927000800
:1000A00029270008292700082927000829270008F0
:1000B00029270008292700082927000829270008E0
:1000C00029270008292700082927000829270008D0
:1000D00029270008292700082927000829270008C0
:1000E00029270008292700082927000829270008B0
:1000F00029270008292700082927000829270008A0
:100100002927000829270008451E0008292700087C
:10011000292700082927000829270008292700087F
:10012000292700082927000829270008292700086F
:10013000292700080000000000000000292700080F
:10014000292700082927000829270008292700084F
:10015000292700082927000829270008292700083F
:10016000292700082927000829270008292700082F
:100170002927000829270008292700080000000077
:100180000000000029270008000000000000000017
:1001900029270008000000000000000029270008AF
:1001A00000000000000000000000000029270008F7
:1001B00029270008292700082927000829270008DF
:0401C00029270008E3
:1001C80070B54FF0FF0C4CF4E06C1CEA11541DBFE5
:1001D8001CEA135594EA0C0F95EA0C0F00F0DEF8B0
:1001E8002C4481EA030621EA4C5123EA4C5350EA95
:1001F800013518BF52EA033541F4801143F48013E6
:1002080038D0A0FB02CE4FF00005E1FB02E506F076
:100218000042E0FB03E54FF00006E1FB03569CF0CB
:10022800000F18BF4EF0010EA4F1FF04B6F5007FD1
:1002380064F5407404D25FEA4E0E6D4146EB060643
:1002480042EAC62141EA55514FEAC52040EA5E50CC
:100258004FEACE2EB4F1FD0C88BFBCF5E06F1ED876
:10026800BEF1004F08BF5FEA500E50F1000041EBAD
:10027800045170BD06F0004646EA010140EA02005A
:1002880081EA0301B4EB5C04C2BFD4EB0C0541EA7C
:10029800045170BD41F480114FF0000E013C00F391
:1002A800AB8014F1360FDEBF002001F0004170BDB5
:1002B800C4F10004203C35DA0C341BDC04F11404CE
:1002C800C4F1200500FA05F320FA04F001FA05F25A
:1002D80040EA020001F0004221F0004110EBD37027
:1002E80021FA04F642EB06015EEA430E08BF20EA53
:1002F800D37070BDC4F10C04C4F1200500FA04F3F6
:1003080020FA05F001FA04F240EA020001F0004187
:1003180010EBD37041F100015EEA430E08BF20EAFA
:10032800D37070BDC4F1200500FA05F24EEA020E42
:1003380020FA04F301FA05F243EA020321FA04F071
:1003480001F0004121FA04F220EA020000EBD37028
:100358005EEA430E08BF20EAD37070BD94F0000F28
:100368000FD101F00046400041EB010111F4801F5C
:1003780008BF013CF7D041EA060195F0000F18BF0D
:10038800704703F00046520043EB030313F4801F49
:1003980008BF013DF7D043EA0603704794EA0C0F03
:1003A8000CEA135518BF95EA0C0F0CD050EA410619
:1003B80018BF52EA4306D1D181EA030101F0004196
:1003C8004FF0000070BD50EA410606BF10461946BE
:1003D80052EA430619D094EA0C0F02D150EA0136CA
:1003E80013D195EA0C0F05D152EA03361CBF10460B
:1003F80019460AD181EA030101F0004141F0FE41AA
:1004080041F470014FF0000070BD41F0FE4141F42D
:10041800780170BD81F0004102E000BF83F0004325
:1004280030B54FEA41044FEA430594EA050F08BF87
:1004380090EA020F1FBF54EA000C55EA020C7FEA4B
:10044800645C7FEA655C00F0E2804FEA5454D4EBC8
:100458005555B8BF6D420CDD2C4480EA020281EA92
:10046800030382EA000083EA010180EA020281EACA
:100478000303362D88BF30BD11F0004F4FEA01311C
:100488004FF4801C4CEA113102D0404261EB41012B
:1004980013F0004F4FEA03334CEA133302D05242B1
:1004A80063EB430394EA050F00F0A780A4F101046D
:1004B800D5F1200E0DDB02FA0EFC22FA05F28018A7
:1004C80041F1000103FA0EF2801843FA05F359418D
:1004D8000EE0A5F120050EF1200E012A03FA0EFC0C
:1004E80028BF4CF0020C43FA05F3C01851EBE37136
:1004F80001F0004507D54FF0000EDCF1000C7EEB53
:1005080000006EEB0101B1F5801F1BD3B1F5001F90
:100518000CD349085FEA30004FEA3C0C04F10104AF
:100528004FEA445212F5800F80F09A80BCF1004FD8
:1005380008BF5FEA500C50F1000041EB045141EA5A
:10054800050130BD5FEA4C0C404141EB0101013C23
:1005580028BFB1F5801FE9D291F0000F04BF014612
:100568000020B1FA81F308BF2033A3F10B03B3F1E4
:1005780020020CDA0C3208DD02F1140CC2F10C0274
:1005880001FA0CF021FA02F10CE002F11402D8BFD2
:10059800C2F1200C01FA02F120FA0CFCDCBF41EA9E
:1005A8000C019040E41AA2BF01EB0451294330BD6D
:1005B8006FEA04041F3C1CDA0C340EDC04F114044A
:1005C800C4F1200220FA04F001FA02F340EA030021
:1005D80021FA04F345EA030130BDC4F10C04C4F167
:1005E800200220FA02F001FA04F340EA0300294647
:1005F80030BD21FA04F0294630BD94F0000F83F491
:10060800801306BF81F480110134013D4EE77FEA73
:10061800645C18BF7FEA655C29D094EA050F08BFBF
:1006280090EA020F05D054EA000C04BF19461046A0
:1006380030BD91EA030F1EBF0021002030BD5FEAE4
:10064800545C05D14000494128BF41F0004130BD0C
:1006580014F580043CBF01F5801130BD01F0004560
:1006680045F0FE4141F470014FF0000030BD7FEAD3
:10067800645C1ABF194610467FEA655C1CBF0B46CE
:10068800024650EA013406BF52EA033591EA030FE5
:1006980041F4002130BD00BF90F0000F04BF0021DD
:1006A800704730B54FF4806404F132044FF0000510
:1006B8004FF0000150E700BF90F0000F04BF002189
:1006C800704730B54FF4806404F1320410F00045EF
:1006D80048BF40424FF000013EE700BF42004FEAEA
:1006E800E2014FEA31014FEA02701FBF12F07F4367
:1006F80093F07F4F81F06051704732F07F4208BF1E
:10070800704793F07F4F04BF41F40021704730B524
:100718004FF4607401F0004521F000411CE700BF70
:1007280050EA010208BF704730B54FF000050AE0F3
:1007380050EA010208BF704730B511F0004502D5F4
:10074800404261EB41014FF4806404F132045FEAF6
:10075800915C3FF4D8AE4FF003025FEADC0C18BF9F
:1007680003325FEADC0C18BF033202EBDC02C2F191
:10077800200300FA03FC20FA02F001FA03FE40EA23
:100788000E0021FA02F11444BDE600BF4FF0FF3C11
:1007980006E000BF4FF0010C02E000BF4FF0010C73
:1007A8004DF804CD4FEA410C7FEA6C5C4FEA430CEC
:1007B80018BF7FEA6C5C1BD001B050EA410C0CBF3B
:1007C80052EA430C91EA030F02BF90EA020F00209D
:1007D800704710F1000F91EA030F58BF994208BF04
:1007E80090422CBFD8176FEAE37040F001007047C1
:1007F8004FEA410C7FEA6C5C02D150EA013C07D118
:100808004FEA430C7FEA6C5CD6D152EA033CD3D062
:100818005DF8040B704700BF8446104662468C465C
:100828001946634600E000BF01B5FFF7B7FF00288F
:1008380048BF10F1000F01BD4DF808EDFFF7F4FFB8
:100848000CBF012000205DF808FB00BF4DF808ED43
:10085800FFF7EAFF34BF012000205DF808FB00BF66
:100868004DF808EDFFF7E0FF94BF012000205DF888
:1008780008FB00BF4DF808EDFFF7CEFF94BF01203D
:1008880000205DF808FB00BF4DF808EDFFF7C4FF36
:1008980034BF012000205DF808FB00BF53B94AB9F6
:1008A800002908BF00281CBF4FF0FF314FF0FF3070
:1008B80000F00CB8ADF1080C6DE904CE01F032FF80
:1008C800DDF804E0DDE9022304B07047704700BF9B
:1008D8000348044B834202D0034B03B118477047C7
:1008E8000C0000200C000020000000000548064B0A
:1008F8001B1AD90F01EBA301491002D0034B03B116
:10090800184770470C0000200C0000200000000071
:1009180010B5064C237843B9FFF7DAFF044B13B13F
:100928000448AFF300800123237010BD100000209D
:1009380000000000402A000808B5054B1BB1054916
:100948000548AFF30080BDE80840FFF7CFBF00BF00
:100958000000000014000020402A000800000000E9
:100968002DE9F04FBA4BBB4F93ED007BC1B08DED35
:10097800067B93ED027B8DED107B9DED067B8DED67
:100988001C7B9DED107B8DED1E7B93ED047B8DED27
:10099800087B8DED207B93ED067B8DED127B8DED35
:1009A800227B93ED087B8DED0A7B8DED247B93ED07
:1009B8000A7B3022002128A88DED147B8DED267B43
:1009C80002F00EF81CAB002634AD1C46F4E802AB6E
:1009D80028AB02940493B946984600963C46D8E959
:1009E800006752465B46F9E80201FFF7E9FB324629
:1009F8003B46FFF715FDE8E802014545EFD1009EAB
:100A080006362746242E029C07F13007DED1302215
:100A180000212846049C01F0E3FF8F4B8F4A0F9476
:100A280000270DF5807B1E46F2E802890C95B24638
:100A38002C46009702960492D4E9006742464B463A
:100A4800FAE80201FFF7BCFB32463B46FFF7E8FC39
:100A5800E4E80201A345EFD1009F029E049A0637FD
:100A6800122F06F13006DFD10C9E0F9CDFF8F8A19B
:100A78001CAFF6E80223F4E80201FFF7D1FCFAE81C
:100A8800028902460B4640464946FFF7C7FCA54285
:100A9800E7E80201EDD19FED687B714BDFF8CC816F
:100AA8000C938DED047B8DED027B8DED007B16ABF9
:100AB8000F9347464FF0000928AE0DF1700BC24660
:100AC80000240025DAE97E23FBE80201FFF778FB22
:100AD80002460B4620462946FFF7A2FC5E450AF16E
:100AE800180A04460D46EDD102460B46F8E8020105
:100AF800FFF796FC0F9BE3E802010F930C9BF3E8CA
:100B080002450C932046D7E9A2232946FFF758FB54
:100B180002460B46DDE90001FFF782FCD7E9A42372
:100B2800CDE9000120462946FFF74AFB02460B465D
:100B3800DDE90201FFF774FC02460B46CDE902230A
:100B48002046D7E9A6232946FFF73AFB02460B467B
:100B5800DDE90401FFF764FC09F10109B9F1030FAC
:100B6800CDE9040107F11807A7D1DDE91623DDE96E
:100B78000001FFF755FC3B4B002204460D46FFF7EA
:100B880083FE002840F088852DA3D3E90023204662
:100B98002946FFF75BFE002840F08C852C4BD3E9F3
:100BA8001289204642464B462946FFF737FC2D4B13
:100BB800002206460F46FFF767FE002800F058851A
:100BC800284B404649460022FFF72AFC04460D46BA
:100BD8001F4BDFF89CA0C3E91245CAE900451AA3D8
:100BE800D3E9002320462946FFF718FC02460B46A6
:100BF800DDE90201CDE90223DDE91823FFF710FC46
:100C0800184B002204460D46FFF73EFE002840F030
:100C18002B850BA3D3E9002320462946FFF716FEB0
:100C2800002840F042850A4BD3E914892046424601
:100C38004B4629461EE000BF0000000000000000EF
:100C48000000000000408FC00000000000DC714080
:100C580060000020A82A0008C82B000848000020CF
:100C68009000002000408F40782A0008602A000881
:100C780030000020FFF7D2FBD34B002206460F4678
:100C8800FFF702FE002800F0DB84CF4B40464946C0
:100C98000022FFF7C5FB04460D46CC4BCAE90245C6
:100CA800C3E914452046A0A3D3E900232946FFF74A
:100CB800B5FB02460B46DDE90401CDE90423DDE975
:100CC8001A23FFF7ADFBC04B002204460D46FFF781
:100CD800DBFD002840F09C8495A3D3E9002320463F
:100CE8002946FFF7B3FD002840F0DA84B74BD3E973
:100CF8001689204642464B462946FFF78FFBB24BE2
:100D0800002206460F46FFF7BFFD002800F0848446
:100D1800AD4B404649460022FFF782FB04460D468C
:100D2800AA4BCAE90445C3E91645204682A3D3E97C
:100D38000023A74C2946FFF771FB94ED027B06467A
:100D48000F467FA3D3E90023DDE902018DED007B87
:100D5800FFF736FAD4E900ABD4E904897AA3D3E9DA
:100D6800002304460D46DDE90401FFF729FA02468F
:100D78000B4620462946FFF753FB75A3D3E900230A
:100D880004460D4630463946CDE90C67FFF718FA98
:100D980002460B4620462946FFF742FB6EA3D3E9DD
:100DA800002304460D4650465946FFF709FA024605
:100DB8000B4620462946FFF733FB69A3D3E90023F6
:100DC80004460D46DDE90001FFF7FAF902460B4635
:100DD80020462946FFF724FB63A3D3E900230446F2
:100DE8000D4640464946FFF7EBF902460B462046BA
:100DF8002946FFF715FB5EA3D3E9002304460D46F9
:100E0800DDE90601FFF7DCF95BA3D3E90023064619
:100E18000F46DDE91001FFF7D3F902460B463046CD
:100E28003946FFF7FDFA56A3D3E9002306460F46D5
:100E3800DDE90801FFF7C4F902460B46304639469A
:100E4800FFF7EEFA50A3D3E9002306460F46DDE983
:100E58000A01FFF7B5F902460B4630463946FFF757
:100E6800DFFA02460B4620462946FFF7D9FA574BC8
:100E7800C3E9000146A3D3E90023DDE90201FFF736
:100E88009FF945A3D3E9002304460D46DDE9040193
:100E9800FFF796F902460B4620462946FFF7C0FAA7
:100EA8003FA3D3E9002304460D46DDE90C01FFF713
:100EB80087F902460B4620462946FFF7B1FA3AA3BE
:100EC800D3E9002304460D4650465946FFF778F902
:100ED80002460B4620462946FFF7A2FA34A3D3E977
:100EE800002304460D46DDE90001FFF769F90246D3
:100EF8000B4620462946FFF793FA2FA3D3E9002390
:100F080004460D4640464946FFF75AF902460B4645
:100F180020462946FFF784FA29A3D3E9002304468B
:100F28000D46DDE9060155E09A99999999F97040BD
:100F38000000000000408FC09A999999990170406B
:100F4800719372B3689A82BEACDAAB5D1942933E74
:100F5800EB9CFD720F9F83BE668C223AD764C73F15
:100F6800B877877974D42EBF7F9B0257CFDEF63EC1
:100F780028B9A562AB29EA3F0C56418B7E7B843F9A
:100F8800B877877974D42E3F7F9B0257CFDEF6BEA1
:100F980088156D31B311FDBE5CC35929BB170E3FCF
:100FA8001DF452D8FDA8FEBE832AA939E5B5F83F3D
:100FB800A961B1AB78266FBF610332A35A6D343F84
:100FC80068FFF8B1E995F7BF00408F406000002046
:100FD80048000020FFF7F4F8F4A3D3E900230646FD
:100FE8000F46DDE91001FFF7EBF802460B463046E5
:100FF8003946FFF715FAEFA3D3E9002306460F4653
:10100800DDE90801FFF7DCF802460B4630463946B1
:10101800FFF706FAE9A3D3E9002306460F46DDE900
:101028000A01FFF7CDF802460B4630463946FFF76E
:10103800F7F902460B4620462946FFF7F1F9DA4B45
:10104800C3E90201DDE90201A7A3D3E90023FFF701
:10105800B7F8A7A3D3E9002304460D46DDE9040148
:10106800FFF7AEF802460B4620462946FFF7D8F9A7
:10107800A1A3D3E9002304460D46DDE90C01FFF7DF
:101088009FF802460B4620462946FFF7C9F99CA35C
:10109800D3E9002304460D4650465946FFF790F819
:1010A80002460B4620462946FFF7BAF996A3D3E92C
:1010B800002304460D46DDE90001FFF781F80246EA
:1010C8000B4620462946FFF7ABF991A3D3E9002345
:1010D80004460D4640464946FFF772F802460B465D
:1010E80020462946FFF79CF98BA3D3E90023044641
:1010F8000D46DDE90601FFF763F889A3D3E900236C
:1011080006460F46DDE90801FFF75AF802460B4686
:1011180030463946FFF784F983A3D3E9002306460E
:101128000F46DDE91201FFF74BF802460B46304641
:101138003946FFF775F97EA3D3E9002306460F4623
:10114800DDE90A01FFF73CF802460B46304639460E
:10115800FFF766F902460B4620462946FFF760F975
:10116800914BC3E90401DDE9020173A3D3E900232C
:10117800FFF726F872A3D3E9002304460D46DDE9FC
:101188000401FFF71DF802460B4620462946FFF7E3
:1011980047F96DA3D3E9002304460D46DDE90C01A8
:1011A800FFF70EF802460B4620462946FFF738F9A6
:1011B80067A3D3E9002304460D4650465946FEF777
:1011C800FFFF02460B4620462946FFF729F962A38E
:1011D800D3E9002304460D46DDE90001FEF7F0FFE0
:1011E80002460B4620462946FFF71AF95CA3D3E9C5
:1011F800002304460D4640464946FEF7E1FF0246F5
:101208000B4620462946FFF70BF957A3D3E90023DD
:1012180004460D46DDE90601FEF7D2FF54A3D3E9E3
:10122800002306460F46DDE90801FEF7C9FF02461E
:101238000B4630463946FFF7F3F84FA3D3E90023AE
:1012480006460F46DDE91201FEF7BAFF02460B46D5
:1012580030463946FFF7E4F849A3D3E900230646A8
:101268000F46DDE90A01FEF7ABFF02460B463046A2
:101278003946FFF7D5F802460B4620462946FFF7C0
:10128800CFF8494BC3E90601DDE902013EA3D3E9E2
:101298000023FEF795FF3EA3D3E9002304460D463D
:1012A800DDE90401FEF78CFF02460B46204629467D
:1012B800FFF7B6F838A3D3E9002304460D46DDE965
:1012C8000C01FEF77DFF02460B4620462946FFF734
:1012D800A7F833A3D3E9002304460D4650465946E0
:1012E800FEF76EFF6EE000BFAF59F21EC3DE90BE80
:1012F8002530BD6E52DAF83DED6AD01F2B59903E6D
:1013080028FDEF5675D32EBF9D33028DCF5BC73FA7
:10131800E8A48E83028421BF28FDEF5675D32E3FA3
:101328003DAE332FD52BEA3F14740A66797B843F90
:10133800E8A48E830284213F615768C4725C0ABFA7
:1013480056C68581D86A733EEA63923EB28B093FDE
:101358006C298C51B41F6FBF78AB75D13CA2F83F94
:101368003C5D96B5CF205FBF6C298C51B41F6F3F91
:10137800B383A391AD8BF7BF921D3A896401F03F07
:101388003C5D96B5CF205F3F9D9E305F26B2A43E60
:10139800EB45C5471E74A43E18B2BA3E1A39A43E9E
:1013A800A4090ACE675B473F60000020212E97986A
:1013B8007001F03FA961B1AB78266F3F610332A39A
:1013C8005A6D34BF02460B4620462946FFF728F8D7
:1013D800D5A3D3E9002304460D46DDE90001FEF755
:1013E800EFFE02460B4620462946FFF719F8D0A320
:1013F800D3E9002304460D4640464946FEF7E0FE81
:1014080002460B4620462946FFF70AF8CAA3D3E945
:10141800002304460D46DDE90601FEF7D1FEC8A308
:10142800D3E9002306460F46DDE90801FEF7C8FEAA
:1014380002460B4630463946FEF7F2FFC2A3D3E90F
:10144800002306460F46DDE90A01FEF7B9FE02460B
:101458000B4630463946FEF7E3FFBDA3D3E9002328
:1014680006460F46DDE91401FEF7AAFE02460B46C2
:1014780030463946FEF7D4FF02460B462046294639
:10148800FEF7CEFFA64BC3E90801DDE902018CA3F4
:10149800D3E90023FEF794FE8BA3D3E90023044687
:1014A8000D46DDE90401FEF78BFE02460B46204699
:1014B8002946FEF7B5FF86A3D3E9002304460D4667
:1014C800DDE90C01FEF77CFE02460B462046294664
:1014D800FEF7A6FF80A3D3E9002304460D46504635
:1014E8005946FEF76DFE02460B4620462946FEF792
:1014F80097FF7BA3D3E9002304460D46DDE90001ED
:10150800FEF75EFE02460B4620462946FEF788FF98
:1015180075A3D3E9002304460D4640464946FEF725
:101528004FFE02460B4620462946FEF779FF70A378
:10153800D3E9002304460D46DDE90601FEF740FE27
:101548006DA3D3E9002306460F46DDE90801FEF73F
:1015580037FE02460B4630463946FEF761FF68A360
:10156800D3E9002306460F46DDE90A01FEF728FE07
:1015780002460B4630463946FEF752FFDDE9142392
:10158800FEF74EFF02460B4620462946FEF748FF67
:10159800634C5246C4E90A015B4600200021FEF76D
:1015A8003DFF59A3D3E90023FEF70AFE02460B4686
:1015B800D4E90C01FEF734FFDDE90023C4E90C018E
:1015C80000200021FEF72AFF4FA3D3E90023FEF7EE
:1015D800F7FD02460B46D4E90E01FEF721FF42460D
:1015E800C4E90E014B464AA1D1E90001FEF716FFF6
:1015F80045A3D3E90023FEF7E3FD02460B46D4E9F1
:101608001001FEF70DFFC4E9100141B0BDE8F08FED
:10161800444D0024FFF76ABB3FA3D3E900233046BB
:101628003946FFF713F900283FF47AAB3D4B4046A3
:1016380049460022FEF7F2FE04460D46FFF770BB4E
:1016480035A3D3E9002330463946FFF7FFF80028D1
:101658003FF423AB334B404649460022FEF7DEFEFB
:1016680004460D46FFF719BB2E4D0024FFF7DBBAE1
:1016780029A3D3E9002330463946FFF7E7F80028C5
:101688003FF4A6AA274B404649460022FEF7C6FE6D
:1016980004460D46FFF79CBA224D0024FFF77EBA98
:1016A8001DA5D5E90045FFF721BB1BA5D5E90045D8
:1016B800FFF7B9BA18A5D5E90045FFF76FBA00BF1B
:1016C800EAFB5DFA2D2B203F3E3D24506FF51F3F6E
:1016D80044B6030239991F3F13CC477DEC3F843F42
:1016E800FD6B6401DDE1AEBFA8BF5373CE54E93F83
:1016F80013CC477DEC3F84BFFD6B6401DDE1AE3F59
:10170800A8BF5373CE54E9BF7B14AE47E17A843F38
:1017180065B679D06D25F93F0000000000408FC004
:101728006000002000408F406F25A1F9FFE371BFE2
:1017380076A5C460AD9CC03FA4090ACE675B47BFCD
:101748006F25A1F9FFE3713FA2D6CEA7D4D8EB3F0E
:101758007C14AE47E17A843F30B4064D064C0FCD79
:101768000FC40FCD0FC495E80F0084E80F0030BCFC
:10177800704700BF782A000860000020704700BF4B
:1017880010B5094C23785A1C227023B1074A2370DC
:101798000121116010BD62B6FFF7E2F872B6237836
:1017A800013BDBB2237010BDC2000020C400002042
:1017B800F8B5194E194C00273770277001DF00F073
:1017C8004DFB00F001F900F02FF800F001FA00F0ED
:1017D8001BFA00F073F9124B1D682F60FFF7BCFF6E
:1017E80072B69FED100A00F045F82B68B3FA83F340
:1017F8005B09237062B662B623783BB12B68003B65
:1018080018BF012333702378002BF7D1FFF7B6FFF9
:1018180072B60020F8BD00BFC1000020C000002043
:10182800582A00080AD7233C704700BF08B5BFF301
:101838004F8FBFF36F8F094A0949136809688B42B4
:1018480006D30123136072B6FFF79AFF62B608BD8C
:10185800591C1160002BF6D008BD00BFCC00002039
:10186800C8000020024A536843F080535360704711
:1018780000ED00E0264BD3ED007AF8EE677A30B43D
:1018880067EE807AFCEEE77A17EE903AB3F1807F44
:101898001FD3F8EE676A9FED1F7A1F49C6EE877A55
:1018A800FCEEE77A17EE902A0132B3FBF2F3013B24
:1018B800B3F1807F0A601ED3184B194C19491A4896
:1018C8000860F02200252560DA7783F8222030BCF2
:1018D80070471149013B0022B3F1807F0A60EBD2C7
:1018E8004FF0E0210D484B61F024072380F8234096
:1018F8008A610B61E0E74FF0E02208485361F02469
:101908000021072380F8234091611361D4E700BFC9
:1019180000000020FFFF7F4BC800002000ED00E022
:10192800CC000020D000002035180008EFF300801C
:1019380001B5EFF3118003B41EF0100F08BFB0EE2D
:10194800400A0A48006803B488B004A006904FF023
:10195800807007906FF006008646704703BC80478A
:10196800BFF36F8F00DFFEE700BF0000D00000204C
:101978001EF0100F08BFB0EE400A1EF0040F0CBF97
:10198800EFF30880EFF30980816911F8020C10B1B8
:1019980001280DD00BE01EF0100F0CBF1AB008B0D4
:1019A80003BC80F3118803BC80F300880847FEE776
:1019B8004EF61451CEF200010A6842F001020A60A4
:1019C8007047F4E700BF00BF374A136823F00F03DE
:1019D80043F0020310B51360136803F00F03022BE2
:1019E800FAD13249324B0A6822F4404242F480422A
:1019F8000A600A6822F480320A601A6822F0F80243
:101A080042F080021A601A6842F001021A601A68ED
:101A18009007FCD558682749254A014041F4A84158
:101A280041F010015960596821F4403141F4803186
:101A38005960596821F0E04141F4803159601968D2
:101A480041F08071196013689901FCD5174A5368F1
:101A58005B04FCD5164CA36823F0F003A360A368CD
:101A680023F4E05343F48053A360A36823F4604352
:101A7800A360A36823F0030343F00203A360A368F1
:101A880003F00C03082BFAD10B4800F01BFE0020D2
:101A980000F072F908B172B6FEE7D4F88C3023F082
:101AA8008073C4F88C3010BD003C024000700040C8
:101AB800003802400080BFFF00BD010570B500245A
:101AC80090B0CDE90844CDE90A44CDE90C44CDE90C
:101AD80005443B4B0E941A6C42F400321A641A6C9B
:101AE80002F400320192019A1A6B42F001021A6361
:101AF8001B6B0C2003F001030221CDE902010093C6
:101B08000322072302A92F48009D0492079300F09F
:101B180035FC2D4B2D4DD3F8882022F0606242F021
:101B28000062C3F88820D3F8882022F0C002C3F8E6
:101B38008820D3F8882022F44032C3F88820D3F8CC
:101B4800882022F49072C3F88820D3F8882022F4E1
:101B58000072C3F88820D3F8882042F48062C3F862
:101B68008820D3F8882022F4C052C3F88820D3F8FC
:101B7800882022F4C042C3F88820D3F89C2022F0A1
:101B88000402C3F89C204FF4E1360C22002308A974
:101B98002846CDE90C23CDE90864CDE90A440E9422
:101BA80000F00AFD2B6923F490432B616B6923F045
:101BB8002A036B61EB6843F40053EB6010B070BD0F
:101BC800003802400000024000600240004400402B
:101BD8000A4B0B481A6B0B4942F400121A631B6B31
:101BE80082B003F4001301930022019BC36881F8BB
:101BF80010234FF480330B6002B070470038024066
:101C080000ED00E000E100E010B500228CB0CDE965
:101C18000522CDE90722CDE909223F4B0B921A6B29
:101C28003E4942F004021A631A6B02F0040203925E
:101C3800039A1A6B42F080021A631A6B02F0800250
:101C48000292029A1A6B42F001021A631A6B02F0AE
:101C580001020192019A1A6B42F002021A631B6B8D
:101C680003F0020300934FF400102D4B009A886193
:101C78005A69F02322F0F00293FAA3F32BB1B3FAD6
:101C880083F3022101FA03F31A43254B4FF400545E
:101C98005A6104A80122022304948DF814208DF8B7
:101CA800163000F00FFB94FAA4F41E4BDA6834B136
:101CB800B4FA84F464000323A34022EA0302194916
:101CC800CA604FF400530A6893FAA3F33BB1B3FA1E
:101CD80083F35B00032101FA03F322EA03029FED79
:101CE8000A7B104B0D481A608DED067B9FED087B33
:101CF800002306A98DED087B0A9300F03FFB0CB08A
:101D080010BD00BFAFF300802000000001000000FC
:101D180000000000000000000038024000000240FF
:101D28000038014000080240034B02689A4200D084
:101D3800704700F0ADB800BF000C004082B00D4BFA
:101D4800002100915A6C42F480425A645A6C02F4A1
:101D580080420092009A01911A6C42F080521A64F3
:101D68001B6C03F080530193019B072002B000F025
:101D78009BB800BF0038024070B588B0234B0022E2
:101D880002921A6C42F008021A641B6C03F00803F2
:101D98000293054601A903A8029B00F0F1F8069BEF
:101DA800D3B900F0DDF80346194A1A4C1A49A2FBC8
:101DB80003239B0C013B0022C4E90013204640F298
:101DC800E7332261A260A261E36000F049FA0646A7
:101DD80030B1304608B070BD00F0C2F84300E3E708
:101DE800204600F0F1F806460028F2D1322000F033
:101DF800A9F80F2D01D90126EBE7324629463220F2
:101E080000F064F8054B1D60E3E700BF00380240AE
:101E180083DE1B43D4000020000C00400800002093
:101E2800FEE700BFFEE700BFFEE700BFFEE700BF1A
:101E3800FEE700BF704700BF704700BF014800F0D1
:101E480005B900BFD4000020034AD2F8883043F413
:101E58007003C2F88830704700ED00E008B50B4BFE
:101E68001A6842F400721A601A6842F480621A60B2
:101E78001A6842F480721A60032000F015F80020F6
:101E8800FFF77AFFFFF75AFF002008BD003C024029
:101E9800034A044B11681B780B441360704700BF5A
:101EA8001C010020040000200749CA6803024FF6FD
:101EB800FF0003F4E0630240134343F0BF6343F4BD
:101EC8000033CB60704700BF00ED00E01B4BDB68C0
:101ED800C3F3022300B5C3F1070EBEF1040F03F1EB
:101EE800040C28BF4FF0040EBCF1060F1CD9A3F157
:101EF800030C4FF0FF3303FA0CF322EA03024FF00E
:101F0800FF3303FA0EF321EA030303FA0CF3134336
:101F18001B010028DBB20ADB00F1604000F56140DC
:101F280080F800335DF804FB00229446E7E7044A92
:101F380000F00F00024413765DF804FB00ED00E0AA
:101F4800FCEC00E0002807DB044A4109012300F00B
:101F58001F00834042F82130704700BF00E100E0D5
:101F6800044B05499B68054A0868C3F38223D35C80
:101F7800D84070470038024000000020302D00088B
:101F88000E4B0F2202609A6802F0030242609A68C0
:101F980002F0F00282609A6802F4E052C2609B6824
:101FA800DB0810B403F4E053054C036123685DF8C3
:101FB800044B03F00F030B60704700BF003802406A
:101FC800003C0240704700BF90F83D30012B2FD1F4
:101FD80003681849022280F83D20DA688B4242F0F3
:101FE8000102DA6019D0B3F1804F16D0124A934239
:101FF80013D002F5806293420FD002F580629342BB
:102008000BD002F57842934207D002F57052934202
:1020180003D0A2F59432934204D19A6802F00702E1
:10202800062A03D01A6842F001021A60002070479D
:10203800012070470000014000040040704700BFC5
:10204800704700BF704700BF704700BF036870B596
:10205800DE681D69A907044601D5B20751D469078E
:1020680001D572073AD42B0701D5300724D4EA06E4
:1020780001D5F30610D4E80701D5F10757D42A068D
:1020880001D533065BD4680601D571065FD4AA066C
:1020980001D5B30642D470BD23686FF010021A61EF
:1020A80008222277DB6913F4407F204663D0FFF7CC
:1020B800C7FF00232377DEE723686FF008021A6161
:1020C80004222277DB699907204651D1FFF7B6FF32
:1020D8002046FFF7B7FF00232377C8E723686FF090
:1020E80004021A61022222779B6913F4407F20467A
:1020F8003BD1FFF7A3FF2046FFF7A4FF0023237778
:10210800B1E76FF002021A61012202779B699B070F
:1021180025D0FFF795FF00232377A0E723686FF00A
:10212800200220461A61BDE8704000F0C7B8236855
:102138006FF001021A612046FFF7F6FD9FE723685A
:102148006FF080021A61204600F0BAF89BE7236816
:102158006FF040021A612046FFF776FF97E7FFF716
:102168006DFF2046FFF76EFFD5E7FFF769FFC5E76C
:10217800FFF766FFAFE7FFF761FF2046FFF762FF53
:1021880097E700BF344A0368904210B450D0B0F1CA
:10219800804F3BD0A2F57C42904237D002F5806256
:1021A800904233D002F5806290422FD002F57842F7
:1021B80090423DD0294A90422CD002F5806290424C
:1021C80028D002F58062904224D0A2F5983290423D
:1021D80020D002F5806290421CD002F580629042C5
:1021E80018D00A688C68496923F080030B430360A0
:1021F800C4628262012343610369DB0703D5036973
:1022080023F0010303615DF8044B70474A6823F02B
:1022180070031343CC684A6923F44073234323F0C3
:1022280080038C6813430A680360C4628262E1E732
:102238004C68CA6823F07003234323F440731343A4
:102248004A6923F08003134303608B68C3620B68F9
:1022580083620B690363CDE7000001400040014041
:1022680050B310B590F83D30044603F0FF02F3B1C7
:102278002146022384F83D3051F8040BFFF782FF12
:10228800012384F8463084F83E3084F83F3084F8DF
:10229800403084F8413084F8423084F8433084F880
:1022A800443084F8453084F83D30002010BD80F873
:1022B8003C20FFF787FEDBE701207047704700BF2F
:1022C800704700BF037901689BB1D9B14379012BED
:1022D8001AD0022B2BD043BB274B5A6822EA0102A3
:1022E8005A601A680A431A6000228379ABB910460B
:1022F8007047214B1A6822EA01021A605A6822EADA
:1023080001025A60002070471B4B1A6822EA01023A
:102318001A605A680A435A60E6E7022B22D0032B58
:1023280017D0012B0BD0012070470122DDE7124B9B
:102338001A680A431A605A680A435A60D4E70E4B6F
:102348001046DA6822EA0102DA609A680A439A605B
:102358007047094B10469A680A439A60DA680A433C
:10236800DA607047044B10469A6822EA01029A60C4
:10237800DA680A43DA607047003C01402DE9F04F03
:102388000D6895FAA5F2002A00F09780B2FA82F259
:1023980035FA02F300F091804FF0010C4FF0030E74
:1023A8004FF00F0B1BE0076893FAA3F8B8F1000F82
:1023B80007D0B8FA88F84FEA48080EFA08F827EA6A
:1023C800080793FAA3F3002B7CD0B3FA83F35B00DE
:1023D8009C403C430460013235FA02F36DD00CFA9C
:1023E80002F32B40F7D04C68671E012F42D993FAAD
:1023F800A3F7D1F81080D0F80C9037B1B7FA87F767
:102408007F000EFA07F729EA070993FAA3F7002FC6
:1024180056D0B7FA87F77F0008FA07F848EA09079D
:10242800022CC760BFD193FAA3F7D1F8148027B163
:10243800B7FA87F9B9F1070F46DD1F0AD0F82490DB
:1024480097FAA7FABAF1000F07D0BAFA8AFA4FEA50
:102458008A0A0BFA0AFA29EA0A0997FAA7F7002F53
:1024680044D0B7FA87F7BF0008FA07F848EA09071F
:10247800476298E7D1F80880D0F8089093FAA3F754
:1024880037B1B7FA87F77F000EFA07F729EA070985
:1024980093FAA3F747B3B7FA87F77F0008FA07F864
:1024A80048EA090787604768CE6827EA030706FBFA
:1024B80003F847EA0807476099E70020BDE8F08F6E
:1024C8004027A9E7402383E74FEA890908FA09F773
:1024D8004FF00F0AD0F820800AFA09F928EA09080B
:1024E80047EA080707625EE74027D7E78027BBE788
:1024F8001C4A936803F00C03082B30B420D00C2B33
:1025080006D01948194A30BC042B18BF104670472A
:10251800536854685168144813F4800F5368C1F322
:102528008812C3F3027304F03F01104C08BF204621
:1025380030BCB0FBF1F002FB00F0B0FBF3F07047E9
:1025480055685468516853680748C3F30143013319
:10255800C1F3881215F4800F04F03F014FEA4303DA
:10256800E3E700BF0038024000127A000024F400BC
:1025780038B50446FFF7BCFF0C4A206093680C4945
:102588000C4DC3F30313CB5C20FA03F3636091682B
:10259800C1F38221695C23FA01F1A1609268C2F358
:1025A8004232AA5CD340E36038BD00BF0038024025
:1025B800382D0008302D0008C3689B0401D5012080
:1025C800704730B54B68C2680D46C9680B43296926
:1025D8000B43A96922F4164222F00C020B43134361
:1025E800C3600369AA6823F4405313430361436932
:1025F8006A6923F44073134385B04361044668460F
:10260800FFF7B6FF2B4B9C4218D02B4B9C420ED0A9
:102618002A4B9C420BD003F54C439C420ED0A3F5A9
:1026280048439C4203D003F580639C4203D102983F
:1026380008B12B6823B9012005B030BD0398F7E72E
:10264800AA691921B2F5004FA0FB010115D09A0023
:102658009B0FFEF723F91A49A1FB003252096423A4
:1026680003FB12031B013233A1FB0313120102EB1C
:1026780053139BB2A3600020DEE7DA184FF0000383
:102688005B41FEF70BF90E4AA2FB003149096423AE
:1026980003FB1103DB003233A2FB0323C3F3421213
:1026A8001B0902EB011203F4F87313449BB2A360F5
:1026B800E1E700BF0010014000440040004800402E
:1026C8001F85EB51014B1860704700BF00000020C8
:1026D800DFF834D0FFF7B8FB0C480D490D4A00234A
:1026E80002E0D458C4500433C4188C42F9D30A4ABF
:1026F8000A4C002301E013600432A242FBD300F02D
:1027080077F9FFF755F87047000002200000002015
:102718000C000020582D0008100000202001002087
:10272800FEE700002DE9F047089D0E4604460F46D7
:10273800002B4AD194468C45B2FA82F260D942B154
:10274800C2F12003974020FA03F30CFA02FC1F435E
:1027580094404FEA1C4E1FFA8CF6B7FBFEF1230C8F
:102768000EFB117743EA074301FB06F098420AD9AA
:102778001CEB030301F1FF3780F01581984240F20A
:102788001281023963441B1AA4B2B3FBFEF00EFB9C
:10279800103344EA034400FB06F6A6420AD91CEBB0
:1027A800040400F1FF3380F00081A64240F2FD806E
:1027B8006444023840EA0140A41B00211DB1D44002
:1027C8000023C5E90043BDE8F0878B4205D90DB168
:1027D800C5E9000100210846F5E7B3FA83F10029AD
:1027E80046D1B34202D3824200F2F580841A66EBE6
:1027F800030201201746002DE5D0C5E90047E2E7AE
:10280800002A40F09380A1EB0C034FEA1C471FFA03
:102818008CFE0121B3FBF7F607FB1630230C43EAC5
:1028280000430EFB06F0984208D91CEB030306F19F
:10283800FF3802D2984200F2D08046461B1AA4B252
:10284800B3FBF7F007FB103344EA03440EFB00FE2A
:10285800A64508D91CEB040400F1FF3302D2A645B3
:1028680000F2B6801846A4EB0E0440EA0640A5E73D
:10287800C1F120078B4022FA07FC4CEA030C06FA48
:1028880001FE20FA07F426FA07F344EA0E0400FAD8
:1028980001F84FEA1C404FEA1449B3FBF0FE1FFA57
:1028A8008CF600FB1E3349EA03430EFB06F99945F3
:1028B80002FA01F20BD91CEB03030EF1FF3A80F088
:1028C8008580994540F28280AEF1020E6344A3EB05
:1028D8000909A4B2B9FBF0F300FB139944EA0944CF
:1028E80003FB06F6A64208D91CEB040403F1FF30EB
:1028F80068D2A64266D9023B644443EA0E40A41B50
:10290800A0FB02E6B4427346B14652D34FD05DB144
:10291800B8EB030264EB090404FA07F722FA01F39F
:102928001F43CC40C5E9007400214CE7C2F12001E7
:1029380020FA01F30CFA02FC26FA01F1964033431F
:102948004FEA1C471FFA8CFEB1FBF7F007FB101685
:10295800190C41EA064100FB0EF68E4204FA02F415
:1029680008D91CEB010100F1FF382DD28E422BD97A
:1029780002386144891B9BB2B1FBF7F607FB1611BD
:1029880043EA014306FB0EF1994208D91CEB030305
:1029980006F1FF3814D2994212D9023E63445B1AF9
:1029A80046EA004136E73946EDE6184602E7F045C3
:1029B800ADD2BEEB020366EB0C060138B146A6E7C2
:1029C8004646ECE7034698E74046D3E7D6467EE717
:1029D8006444023847E708460DE7023E63442DE7A2
:1029E80002440346934200D1704703F8011BF9E7FC
:1029F80070B50D4D0D4C641BA4100026A64209D1DC
:102A08000B4D0C4C00F018F8641BA4100026A642CD
:102A180005D170BD55F8043B98470136EEE755F8E7
:102A2800043B98470136F2E7502D0008502D000866
:102A3800502D0008542D0008F8B500BFF8BC08BC9C
:102A48009E467047F8B500BFF8BC08BC9E46704764
:102A58002C000020000000000000000000DC714095
:102A68009A99999999F970409A9999999901704008
:102A7800000000000000000000000000000000004E
:102A8800000000000000000000000000000000003E
:102A980065B679D06D25F93F000000000000000000
:102AA800A90002D7CBA4EA3F3DE3CB697C83F8BFFA
:102AB80018D978172ADB293FF977AEFCDE006F3F7B
:102AC800CAB55A49FA1D44BF13CC477DEC3F84BFB1
:102AD8000000000000000000000000000000F03FBF
:102AE80000000000000000000000000000000000DE
:102AF80000000000000000000000000000000000CE
:102B080017D978172ADB293F26EB62D097066F3F43
:102B1800DFC27C94ADA6EA3FFBD787338C71F8BF40
:102B2800448113CA0FD76E3FFD6B6401DDE1AE3FF0
:102B3800000000000000000000000000000000008D
:102B48000000000000000000000000000000F03F4E
:102B5800000000000000000000000000000000006D
:102B68003E2E49C5129CF3BE3F7A1FF6765534BFF8
:102B7800F0093424EA0F1E3F7EA4F10A67FD5E3F88
:102B880008AD8FC2AD19EC3FA8BF5373CE54E9BF4F
:102B9800000000000000000000000000000000002D
:102BA800000000000000000000000000000000001D
:102BB8000000000000000000000000000000F03FDE
:102BC8005BFDF7A3D06CC53F3DE3CB697C83F83F41
:102BD80018D978172ADB29BFF977AEFCDE006FBF5A
:102BE800CAB55A49FA1D443F13CC477DEC3F843F90
:102BF80017D978172ADB29BF26EB62D097066FBF53
:102C080084F40CAE4965C53FFBD787338C71F83F18
:102C1800448113CA0FD76EBFFD6B6401DDE1AEBFFF
:102C28003E2E49C5129CF33E3F7A1FF67655343F37
:102C3800F0093424EA0F1EBF7EA4F10A67FD5EBFC7
:102C4800BF9782EB9132BF3FA8BF5373CE54E93F81
:102C5800925B9DA99E7FA0C0570110E08CE3B04015
:102C68008387A9687C31A1C016F7688F877786C0EB
:102C7800415FAF1369FD9640A0FC741FF06687C0E2
:102C8800B17FE66EEC31ADC0BFCD8676C8F04F405F
:102C9800DC4AD1E60BDBAC400A0EFD8AFFFB93C091
:102CA800125B6384D98636404305901F36C3934030
:102CB800BE66E927F2A490408A57DBEB4C99904016
:102CC80015BFD1DFCCAB9040CC8B509CD9D5794087
:102CD800D3E840675BD17940F2F521984E057A40F8
:102CE80048E33EA256E171C0831621E0B931824023
:102CF800E10C3DAF478172C06AC8F1E3079A7FC013
:102D0800BB14796F749729408675AE931E887F40EF
:102D1800F0F3BEE32ADF6040F221A5526001614072
:102D2800767852619362614000000000010203045A
:102D38000000000000000000010203040607080963
:082D4800E4F9FF7F0100000027
:042D5000410900082D
:042D54001909000851
:0C2D58000024F400010000001000000046
:04000005080026D9F0
:00000001FF
