:10000000ECC000000C943E0C0C94690C0C94940C05
:100010000C94BF0C0C94EA0C0C94150D0C94400D30
:100020000C946B0D0BC1000009C1000007C100005A
:1000300005C100000C94071301C10000FFC00000BF
:10004000FDC00000FBC00000F9C00000F7C00000C8
:10005000F5C00000F3C00000F1C000000C94960D44
:10006000EDC000000C945D100C949310E7C00000EC
:10007000E5C00000E3C00000E1C00000DFC00000F8
:10008000DDC00000DBC00000D9C00000D7C0000008
:100090000C94E9100C941F11D1C00000CFC00000D7
:1000A000CDC00000CBC00000C9C00000C7C0000028
:1000B000C5C00000C3C00000C1C00000BFC0000038
:1000C000BDC00000BBC00000B9C000000C94751199
:1000D0000C94AB11B3C000000C9401120C943712B5
:1000E000ADC0000000000A0B02090C0D0E0807034A
:1000F00004010000000000000000000000000000FB
:1001000000000000000000000000000000000000EF
:1001100012111000000000000000000000000000AC
:100120000000000000000000000001021020200874
:100130000810204010204080020102010804020142
:1001400001020408102040808040201008040201B1
:10015000800402018040201008040201080402010A
:100160000102040810204080010204081020408091
:1001700005050505070508080808020202020A0A23
:100180000808040404040101010101010101030341
:10019000030303030303040707070C0C0C0C0C0CEC
:1001A0000C0C0202020206060606060606060B0BE9
:1001B0000B0B0B0B0B0B00002200250028002B0063
:1001C0002E003100340002010000050108010B017E
:1001D0000200BC104811D411601211241FBECFEFD1
:1001E000D1E2DEBFCDBF00E00CBF15E0A0E0B2E081
:1001F000E4E9F8E300E00BBF02C007900D92A832DB
:10020000B107D9F72AE0A8E2B5E001C01D92AB39E9
:10021000B207E1F710E0CDEED0E000E006C0219794
:100220000109802FFE010E94231CC93ED10780E0F6
:100230000807A9F70E9425140C94481CE1CEE09110
:100240003C05F0913D0580819181A281B381892B8C
:100250008A2B8B2B29F03696F0933D05E0933C05D5
:1002600008958730910540F5FC018827E55CFE4F35
:100270008F4F0C94231C4201480153017001680107
:10028000760191016E307105B8F481E090E0089537
:100290006E30710588F46C527B4FFB018081082E13
:1002A000000C990B08956730710548F465307105AD
:1002B00060F46330710549F08FEF9FEF0895693066
:1002C000710519F06B307105B9F784E090E008957D
:1002D000615071096D30710578F769537B4FDDCF3F
:1002E0006330710549F785E090E008956E3071053F
:1002F00018F7FB018827E058FE4F8F4F0C94231C02
:1003000091018E018E018E018E018E018E018E0172
:1003100091015C015C0191018E018E0186E090E00B
:10032000089587E090E00895E0913C05F0913D0547
:1003300040815181628173818481958139D3892B78
:1003400019F081E090E008957ADFE0913C05F091AA
:100350003D0580819181A281B381892B8A2B8B2BD2
:1003600019F790E080E008951F93CF93DF931F92D9
:10037000CDB7DEB7182F198241E050E060E070E0A1
:10038000CE01019615D3892BC1F4198341E050E0C9
:1003900060E070E0CE0101960BD3892B71F481E00F
:1003A000D4D331E020E0892B09F430E0832F922F61
:1003B0000F90DF91CF911F91089581E090E0F8CFE9
:1003C000CF93DF931F92CDB7DEB780912E0590912A
:1003D0002F05892BF9F441E050E060E070E0CE0198
:1003E000019648D3698170E07093310560933005C0
:1003F0006A30710599F481E090E090933B05809319
:100400003A0588E090E0B0DF892B21F010920102DC
:10041000109200020F90DF91CF91089580912E05E8
:1004200090912F051EDF90932F0580932E05019646
:1004300089F7ECCF8F929F92AF92BF92CF92EF92BB
:10044000FF920F931F93BCDF80912E0590912F0593
:100450000197D9F444E050E060E070E086E395E075
:1004600009D3609130057091310580912E059091EE
:100470002F05F7DE90932F0580932E05019629F422
:10048000109201021092000267C180912E05909196
:100490002F050297B1F444E050E060E070E082E3A1
:1004A00095E0E8D2609130057091310580912E057C
:1004B00090912F05D6DE90932F0580932E050196FF
:1004C000F9F280912E0590912F05049709F066C0EE
:1004D00080912C0590912D05892B89F5009132058D
:1004E0001091330520913405309135054091300548
:1004F000509131056091360570913705809138052E
:1005000090913905BCE3EB2EB5E0FB2EC8D3892BC7
:10051000A9F5E0913C05F0913D058481958190938A
:100520002D0580932C0580819181A281B3818093D8
:10053000280590932905A0932A05B0932B05409197
:1005400028055091290560912A0570912B0580910D
:100550002C0590912D058ED272DEE0913C05F09134
:100560003D0580819181A281B3810097A105B105EC
:1005700009F06EC010922D0510922C056091300587
:100580007091310580912E0590912F056ADE909330
:100590002F0580932E05019609F472CF80912E05C8
:1005A00090912F05039789F500913205109133053D
:1005B0002091340530913505409130055091310539
:1005C0006091360570913705809138059091390515
:1005D000812C912C5401CC24C394ACE3EA2EA5E0E9
:1005E000FA2EE0D3892B09F448C060913005709150
:1005F000310580912E0590912F0533DE90932F05C4
:1006000080932E05019609F43BCF80912E059091A1
:100610002F05059709F05BC0E0913005F091310599
:10062000EE30F10508F02CCF8827E65EFC4F8F4FA7
:100630000C94231C4B03B603CF033204DE03ED03FB
:10064000040457039A03400240021B044904C503F3
:100650002481358130932D0520932C0568CFEFDD63
:10066000E0913C05F0913D0580819181A281B381AB
:10067000892B8A2B8B2B09F4B8CFE0913C05F091A4
:100680003D0540815181628173818481958190D142
:10069000892B29F3F5CEA3D6892B09F0F1CE82D28E
:1006A000892B09F0EDCE1FD5892B09F0E9CE609199
:1006B00030057091310580912E0590912F05D1DD87
:1006C00090932F0580932E05019609F4D9CE809141
:1006D0002E0590912F05069709F0FAC0009132057A
:1006E0001091330520913405309135054091300546
:1006F000509131056091360570913705809138052C
:1007000090913905812C912C5401E2E0CE2EFCE32E
:10071000EF2EF5E0FF2E88D3892B09F0C9C004DE47
:100720008130910509F4ACCE892B09F4C1C082E077
:1007300090E00EC0609136057091370580913805C4
:100740009091390525D2892B09F4B1CF83E090E04F
:100750000BDE892B09F094CE1F910F91FF90EF9043
:10076000CF90BF90AF909F908F9008956091360585
:1007700070913705809138059091390542D2892BC7
:1007800009F495CF84E090E0E3CF60913605709155
:10079000370580913805909139055DD2F0CF609191
:1007A00036057091370580913805909139055DD2F5
:1007B000892B09F47CCF85E090E0CACF60913605A3
:1007C00070913705809138059091390582D4892B35
:1007D00009F46DCF88E090E0BBCF209132053091D5
:1007E000330540913405509135056091360570917F
:1007F0003705809138059091390578D4892B09F413
:1008000056CF89E090E0A4CF209132053091330596
:10081000409134055091350560913605709137054A
:1008200080913805909139056BD4892B09F43FCF1D
:100830008AE090E08DCF20913205309133054091D0
:1008400034055091350560913605709137058091DA
:10085000380590913905DED2892B09F428CF87E03D
:1008600090E076CF209132053091330540913405E8
:1008700050913505609136057091370580913805A6
:1008800090913905A6D2892B09F411CF86E090E02A
:100890005FCF609136057091370580913805909152
:1008A0003905F3D1892B09F402CF8BE090E050CFCA
:1008B000609130057091310580912E0590912F0542
:1008C000D0DC90932F0580932E05019609F4D8CDA6
:1008D00080912E0590912F05079709F03DCF8091CB
:1008E000300590913105099709F436CF81E02DD17B
:1008F000892B09F0C5CD10922F0510922E052CCF13
:1009000099DD8091000290910102892B71F081E0C4
:1009100090E020913A0530913B05232B11F490E0B3
:1009200080E0919581959109089581E090E0089586
:1009300066E870E088E495E080D48823C9F080916F
:1009400048059091490580D49093430580934205D2
:100950009C012F5F3F4F309347052093460510922F
:10096000450510924405FC01108290E080E0089556
:1009700081E090E0089560914405709145056F5FB6
:100980007F4F809148059091490561D4811103C042
:1009900083E090E00895CCDF892BD1F790E080E0F0
:1009A000089549D4813009F4C3CF81E090E00895DF
:1009B0004F925F926F927F92AF92BF92CF92DF92EF
:1009C000EF92FF920F931F93CF93DF936C012A0155
:1009D0003B0180E8A82EB12C41145104610471043C
:1009E00019F490E080E035C0809144059091450570
:1009F0008038910559F1E0904405F0904505E501F6
:100A0000CE19DF09CE01B0E0A0E084159505A6055A
:100A1000B70570F50091460510914705AE01B60186
:100A2000C8010E943F1C4C1A5D0A61087108EC0E57
:100A3000FD1EF0924505E0924405CC0EDD1EC00F70
:100A4000D11FD0934705C0934605C6CF94DF0097CA
:100A500091F2DF91CF911F910F91FF90EF90DF9076
:100A6000CF90BF90AF907F906F905F904F90089520
:100A7000E201D0CF8F929F92AF92BF92CF92DF923E
:100A8000EF92FF920F931F93CF93DF938C016A0134
:100A90007B01812C912C5401C114D104E104F10497
:100AA000B1F1C0914005D0914105209709F442C0B1
:100AB000CE01B0E0A0E08C159D05AE05BF0508F0A5
:100AC000E60160913E0570913F05AE01C801880DB9
:100AD000991D0E943F1C80914005909141058C1BFF
:100AE0009D0B909341058093400580913E05909128
:100AF0003F058C0F9D1F90933F0580933E05CE01CF
:100B0000B0E0A0E0C81AD90AEA0AFB0A79F490E03A
:100B100080E0DF91CF911F910F91FF90EF90DF90D8
:100B2000CF90BF90AF909F908F900895880E991EA0
:100B3000AA1EBB1E60E475E08EE395E029D3019602
:100B400009F0AACF81E090E0E4CFE0914205F09176
:100B50004305882349F082E080830DDF83309105CF
:100B600011F090E080E0089581E0F6CFE0D20197A7
:100B700019F081E090E0089514DF892BD1F766D653
:100B800031E020E0892B09F430E0832F922F089583
:100B9000672B682B692B19F490E080E0089582E0C0
:100BA00090E00895CF93DF931F92CDB7DEB788E032
:100BB000898341E050E060E070E0CE010196F8DE0C
:100BC000892BE1F481E0898341E050E060E070E04E
:100BD000CE010196EDDE892B89F484E0898341E022
:100BE00050E060E070E0CE010196E2DE892B31F446
:100BF00090E080E00F90DF91CF91089583E090E046
:100C0000F9CF10926409109265091092660910924A
:100C10006709109268091092690910926A09109286
:100C20006B0910926C0910926D0910926E09109266
:100C30006F09672B682B692B59F460910202709140
:100C4000030284EA95E00E94D01790E080E00895C6
:100C500082E090E00895672B682B692B19F082E001
:100C600090E0089590E080E00895672B682B692B51
:100C700049F460ED79E080E799E00E94531490E038
:100C800080E0089582E090E00895672B682B692B3F
:100C900019F082E090E0089590E080E00895EF92EE
:100CA000FF92F70111821082672B682B692B09F0E4
:100CB00076C043305105C1F181E090E048305105E4
:100CC00081F58091540590915505892B21F588E493
:100CD00090E0A0E0B0E080936E0590936F05A09344
:100CE0007005B09371058DEE99E090937305809334
:100CF0007205109274051092750510927605109287
:100D00007705109279051092780581E090E0909334
:100D10005505809354058EE695E09183808390E09D
:100D200080E0FF90EF9008958091520590915305D7
:100D3000892B91F58CE090E0A0E0B0E080939205E3
:100D400090939305A0939405B093950525E33AE01D
:100D50003093970520939605809398059093990575
:100D6000A0939A05B0939B0581E49AE090939D052A
:100D700080939C0510929E0510929F051092A005ED
:100D80001092A1051092A3051092A20581E090E0B7
:100D9000909353058093520582E995E0BECF82E09F
:100DA00090E0BFCFEF92FF92CF93DF93CDB7DEB746
:100DB000F70111821082672B682B692B39F481E0CF
:100DC00090E0DF91CF91FF90EF90089582E090E066
:100DD000F8CF0F931F93672B682B692BC1F481E029
:100DE00090E0213031054105510571F400ED19E025
:100DF00020E739E044E659E061E47AE085E39AE0EF
:100E00000E94AE1490E080E01F910F91089582E05F
:100E100090E0FACF672B682B692B19F490E080E003
:100E2000089582E090E008958F929F92AF92BF92D2
:100E3000CF92EF92FF92CF93DF9300D01F921F9239
:100E4000CDB7DEB7C9828A829B82AC82BD82F701B0
:100E500011821082672B682B692B09F037C1423051
:100E6000510509F4EFC038F44130510509F444C08C
:100E700081E090E074C04330510509F494C04630DD
:100E80005105B1F780914C0590914D05892B21F5C5
:100E90008CE090E0A0E0B0E0809362059093630561
:100EA000A0936405B093650584E699E09093670587
:100EB00080936605109268051092690510926A0584
:100EC00010926B0510926D0510926C0581E090E018
:100ED00090934D0580934C0541E050E060E070E058
:100EE000CE01019665DD892BC1F58981893009F430
:100EF0009EC082E695E047C08091500590915105D3
:100F0000892B11F58CE090E0A0E0B0E080937A05A9
:100F100090937B05A0937C05B0937D0584E699E0D2
:100F200090937F0580937E05109280051092810535
:100F30001092820510928305109285051092840507
:100F4000509351054093500541E050E060E070E05F
:100F5000CE0101962DDD892B89F083E090E00F9082
:100F60000F900F900F900F90DF91CF91FF90EF9027
:100F7000CF90BF90AF909F908F90089589818930D6
:100F800041F08AE795E0F7019183808390E080E06B
:100F9000E6CF44E050E060E070E0CE01029608DD6C
:100FA000892B79F3DACF80914E0590914F05892BEB
:100FB00021F58CE090E0A0E0B0E08093860590936E
:100FC0008705A0938805B093890584E699E09093FE
:100FD0008B0580938A0510928C0510928D051092D6
:100FE0008E0510928F05109291051092900581E068
:100FF00090E090934F0580934E0541E050E060E013
:1010000070E0CE010196D4DC892B09F0A6CF89814E
:10101000893019F086E895E0B6CF44E050E060E012
:1010200070E0CE010296C4DC892BA1F396CF44E098
:1010300050E060E070E0CE010296BADC892B09F442
:1010400058CF8BCF80914A0590914B05892B21F584
:101050008CE090E0A0E0B0E08093560590935705B7
:10106000A0935805B093590584E699E090935B05E9
:1010700080935A0510925C0510925D0510925E05F2
:1010800010925F05109261051092600581E090E07A
:1010900090934B0580934A0541E050E060E070E09A
:1010A000CE01019685DC892B09F057CF89818930E3
:1010B00019F086E595E067CF44E050E060E070E02D
:1010C000CE01029675DC892BA1F347CF82E090E038
:1010D00046CF672B682B692B19F490E080E00895C8
:1010E00082E090E0089590E080E00895672B682BFF
:1010F000692B19F481E090E0089582E090E0089572
:10110000672B682B692B69F4232B242B252B61F487
:1011100060ED79E080E799E00E94781490E080E04B
:10112000089582E090E0089581E090E008950E94A3
:10113000C4139C0190932C0680932B0681E090E0D1
:101140002F3F3F4F11F490E080E008950097E9F0C1
:10115000FC01CA01B0E0A0E0608381839283A38395
:10116000B4839A01AD012B5F3F4F4F4F5F4FBF01DB
:1011700080912B0690912C066DD031E020E00196F5
:1011800009F430E0832F922F089580E090E00895D5
:10119000EF92FF920F931F93CF93DF9300D01F9294
:1011A0001F92CDB7DEB77C018B0119821A821B8298
:1011B0001C8221E030E040E050E0BE016B5F7F4FD9
:1011C00080912B0690912C068AD0019671F490E0C4
:1011D00080E00F900F900F900F900F90DF91CF91C4
:1011E0001F910F91FF90EF90089524E030E040E0D0
:1011F00050E0BE016F5F7F4F80912B0690912C06CF
:101200006ED0019621F329813A814B815C8166EA97
:1012100075E080912B0690912C0661D086EA95E0CE
:10122000F7019183808389819A81F801918380837A
:1012300081E090E0CECF81E008952DE236E0FC0120
:101240003183208381E0089582E396E00895AB0125
:1012500061E07CCFAF92BF92CF92DF92EF92FF928C
:101260000F931F93CF93DF931F921F92CDB7DEB7DB
:101270005C018B0169017A0190E080E0C114D10426
:10128000E104F10469F40F900F90DF91CF911F9169
:101290000F91FF90EF90DF90CF90BF90AF900895A7
:1012A0009C2D8D2DC114D10421E0E206F10410F033
:1012B0009FEF8FEF9E012F5F3F4F492F582FB801AF
:1012C000C5010E9410148F3F9807E9F229813A81E5
:1012D000C21AD30AE108F108020F131FCFCFAF9251
:1012E000BF92CF92DF92EF92FF920F931F93CF9313
:1012F000DF931F921F92CDB7DEB75C018B016901AE
:101300007A0190E080E0C114D104E104F10469F4B1
:101310000F900F90DF91CF911F910F91FF90EF9061
:10132000DF90CF90BF90AF9008959C2D8D2DC1146C
:10133000D10421E0E206F10410F09FEF8FEF9E014F
:101340002F5F3F4F492F582FB801C5010E94DE1370
:101350008F3F9807E9F229813A81C21AD30AE1083E
:10136000F108020F131FCFCFFF920F931F93CF935C
:10137000DF9300D01F92CDB7DEB7F62E182F4A8329
:101380002B830C8361E070E0CE01029601D20097BE
:10139000E1F4F98261E070E0CE010196F9D10097A5
:1013A000A1F4198361E070E0CE010196F1D10097BC
:1013B00061F461E070E0CE010396EAD1009729F470
:1013C00061E070E0CE010496E3D10F900F900F9092
:1013D0000F90DF91CF911F910F91FF9008950F9380
:1013E000CF93DF931F921F92CDB7DEB786E08A833B
:1013F0000E94D41781E0898361E070E0CE010196FC
:10140000C7D1892B31F50ED2892B19F585E0898357
:1014100061E070E0CE010196BBD1892BD1F4198235
:1014200061E070E0CE010196B3D1892B91F48091F7
:10143000B7048093B30661E070E083EB96E0A8D137
:10144000892B39F48091B306811106C0EBD1892B29
:10145000A1F081E090E096C16091950A7091960AA2
:101460008091970A9091980A00911B052091B704EA
:1014700041E07ADF892B51F3ECCF198261E070E013
:10148000CE01019685D1892B21F760914D0A70918B
:101490004E0A80914F0A9091500A0091FF042091CA
:1014A0009B0440E061DF892BA1F66091510A7091A5
:1014B000520A8091530A9091540A0091010520919B
:1014C0009D0441E051DF892B09F0C3CF6091550A9B
:1014D0007091560A8091570A9091580A009103051D
:1014E00020919F0442E040DF892B09F0B2CF609148
:1014F000590A70915A0A80915B0A90915C0A009196
:1015000005052091A10443E02FDF892B09F0A1CF2D
:1015100089D1892B09F09DCF81E0898361E070E05A
:10152000CE01019635D1892B09F093CF6091810AC4
:101530007091820A8091830A9091840A0091190522
:101540002091B5044AE010DF892B09F082CF609129
:101550005D0A70915E0A80915F0A9091600A009125
:1015600007052091A30444E0FFDE892B09F071CF29
:101570006091610A7091620A8091630A9091640A95
:10158000009109052091A50445E0EEDE892B09F0C4
:1015900060CF6091650A7091660A8091670A9091A8
:1015A000680A00910B052091A70446E0DDDE892B37
:1015B00009F04FCF37D1892B09F04BCF82E08983D7
:1015C00061E070E0CE010196E3D0892B09F041CFB4
:1015D0006091690A70916A0A80916B0A90916C0A15
:1015E00000910D052091A90447E0BEDE892B09F08A
:1015F00030CF60916D0A70916E0A80916F0A909160
:10160000700A00910F052091AB0448E0ADDE892BF4
:1016100009F01FCF6091710A7091720A8091730A6C
:101620009091740A009111052091AD0449E09CDE6F
:10163000892B09F00ECFF6D0892B09F00ACF83E071
:10164000898361E070E0CE010196A2D0892B09F078
:1016500000CF6091750A7091760A8091770A909117
:10166000780A009113052091AF044DE07DDE892BAF
:1016700009F0EFCE6091790A70917A0A80917B0A25
:1016800090917C0A009115052091B1044CE06CDE2C
:10169000892B09F0DECE60917D0A70917E0A8091DF
:1016A0007F0A9091800A009117052091B3044BE0C6
:1016B0005BDE892B09F0CDCEB5D0892B09F0C9CEE0
:1016C00084E0898361E070E0CE01019661D0892BCE
:1016D00009F0BFCE6091850A7091860A8091870AD1
:1016E0009091880A00911F052091BB044EE03CDEDA
:1016F000892B09F0AECE6091890A70918A0A809197
:101700008B0A90918C0A009121052091BD044FE035
:101710002BDE892B09F09DCE60918D0A70918E0A87
:1017200080918F0A9091900A009123052091BF0427
:1017300040E11ADE892B09F08CCE6091910A7091FC
:10174000920A8091930A9091940A00912505209124
:10175000C10441E109DE892B09F07BCE63D0892BDE
:1017600009F077CE61E070E0CE01029611D0892BAE
:1017700009F06FCE57D031E020E0892B09F430E03A
:10178000832F922F0F900F90DF91CF910F9108959B
:10179000EF92FF920F931F93CF93DF93E090B406E5
:1017A000F090B506E60EF71E2CE1E216F104E8F41F
:1017B000EB01BC010091B6061091B706AE01C8015D
:1017C0000E943F1CF092B506E092B406C00FD11FF4
:1017D000D093B706C093B60690E080E0DF91CF913A
:1017E0001F910F91FF90EF90089582E090E0F6CF67
:1017F00060E270E088EB96E032D0882381F080913F
:10180000B8069091B90632D09093B7068093B60689
:101810001092B5061092B40690E080E0089581E041
:1018200090E008956091B4067091B5068091B80675
:101830009091B9061ED0811103C082E090E0089516
:10184000D7DF892BD1F790E080E0089506D0813072
:1018500009F4CECF81E090E0089581E008952AEB6D
:1018600036E0FC013183208381E008958FEB96E020
:101870000895AB0163E06ACC089508951F920F921A
:101880000FB60F9211240BB60F922F933F934F93E5
:101890005F936F937F938F939F93AF93BF93EF93D8
:1018A000FF93E0910802F09109021995FF91EF91E1
:1018B000BF91AF919F918F917F916F915F914F9168
:1018C0003F912F910F900BBE0F900FBE0F901F9066
:1018D00018951F920F920FB60F9211240BB60F920C
:1018E0002F933F934F935F936F937F938F939F9328
:1018F000AF93BF93EF93FF93E0910A02F0910B0235
:101900001995FF91EF91BF91AF919F918F917F9129
:101910006F915F914F913F912F910F900BBE0F9060
:101920000FBE0F901F9018951F920F920FB60F9237
:1019300011240BB60F922F933F934F935F936F93A6
:101940007F938F939F93AF93BF93EF93FF93E09118
:101950000C02F0910D021995FF91EF91BF91AF919B
:101960009F918F917F916F915F914F913F912F91B7
:101970000F900BBE0F900FBE0F901F9018951F92E7
:101980000F920FB60F9211240BB60F922F933F9325
:101990004F935F936F937F938F939F93AF93BF9377
:1019A000EF93FF93E0910E02F0910F021995FF91D2
:1019B000EF91BF91AF919F918F917F916F915F91C7
:1019C0004F913F912F910F900BBE0F900FBE0F9034
:1019D0001F9018951F920F920FB60F9211240BB6FD
:1019E0000F922F933F934F935F936F937F938F93B8
:1019F0009F93AF93BF93EF93FF93E0910402F09115
:101A000005021995FF91EF91BF91AF919F918F9131
:101A10007F916F915F914F913F912F910F900BBEEE
:101A20000F900FBE0F901F9018951F920F920FB638
:101A30000F9211240BB60F922F933F934F935F9306
:101A40006F937F938F939F93AF93BF93EF93FF9386
:101A5000E0910602F09107021995FF91EF91BF9175
:101A6000AF919F918F917F916F915F914F913F9136
:101A70002F910F900BBE0F900FBE0F901F901895D7
:101A80001F920F920FB60F9211240BB60F922F9345
:101A90003F934F935F936F937F938F939F93AF93F6
:101AA000BF93EF93FF93E0911002F091110219950B
:101AB000FF91EF91BF91AF919F918F917F916F9126
:101AC0005F914F913F912F910F900BBE0F900FBEE2
:101AD0000F901F9018951F920F920FB60F9211241E
:101AE0000BB60F922F933F934F935F936F937F9318
:101AF0008F939F93AF93BF93EF93FF93E091120265
:101B0000F09113021995FF91EF91BF91AF919F91C1
:101B10008F917F916F915F914F913F912F910F9096
:101B20000BBE0F900FBE0F901F9018951F920F9233
:101B30000FB60F9211242F933F938F939F93AF93E0
:101B4000BF938091DB069091DC06A091DD06B091F9
:101B5000DE063091DA0623E0230F2D3758F5019683
:101B6000A11DB11D2093DA068093DB069093DC065D
:101B7000A093DD06B093DE068091DF069091E0062B
:101B8000A091E106B091E2060196A11DB11D8093DE
:101B9000DF069093E006A093E106B093E206BF91C2
:101BA000AF919F918F913F912F910F900FBE0F900A
:101BB0001F90189526E8230F0296A11DB11DD2CFC4
:101BC0003FB7F8948091DF069091E006A091E1067E
:101BD000B091E20626B5A89B05C02F3F19F00196EB
:101BE000A11DB11D3FBFBA2FA92F982F8827BC0177
:101BF000CD01620F711D811D911D42E0660F771F9F
:101C0000881F991F4A95D1F708958F929F92AF929E
:101C1000BF92CF92DF92EF92FF926B017C01D0DFF7
:101C20004B015C01C114D104E104F104D9F024DEBC
:101C3000C7DF681979098A099B09683E73408105E5
:101C4000910580F321E0C21AD108E108F10888EE7D
:101C5000880E83E0981EA11CB11CC114D104E104BC
:101C6000F10431F7FF90EF90DF90CF90BF90AF90ED
:101C70009F908F900895789484B5826084BD84B5D8
:101C8000816084BD85B5826085BD85B5816085BD77
:101C9000EEE6F0E0808181608083E1E8F0E0108290
:101CA000808182608083808181608083E0E8F0E0D1
:101CB000808181608083E1EBF0E0808184608083BB
:101CC000E0EBF0E0808181608083E1E9F0E08081F9
:101CD00082608083808181608083E0E9F0E08081A0
:101CE00081608083E1EAF0E080818260808380818E
:101CF00081608083E0EAF0E0808181608083E1E2BE
:101D0000F1E0808182608083808181608083E0E275
:101D1000F1E0808181608083EAE7F0E08081846087
:101D200080838081826080838081816080838081E4
:101D3000806880831092C10008958150823108F03C
:101D40005AC0E82FF0E08827E755F14F8F4F0C94E9
:101D5000231CC90ECD0EBB0EC10EC50EFB0ED00E40
:101D6000D60EDA0EE00EE40EE80EEE0EF20EFB0ECC
:101D7000F60EFC0E000F809180008F77809380001C
:101D80000895809180008F7DF9CF80918000877FBA
:101D9000F5CF84B58F7784BD089584B58F7DFBCF53
:101DA0008091B0008F778093B00008958091B0004B
:101DB0008F7DF9CF809190008F7780939000089568
:101DC000809190008F7DF9CF80919000877FF5CF33
:101DD0008091A0008F778093A00008958091A0004B
:101DE0008F7DF9CF8091A000877FF5CF8091200172
:101DF0008F77809320010895809120018F7DF9CF06
:101E000080912001877FF5CF1F93CF93DF93282FF9
:101E100030E0F901EC51FF4F8491F901E65DFE4F8E
:101E2000D491F901E059FE4FC491CC23A1F0162FB3
:101E3000811183DFEC2FF0E0EE0FFF1FEA54FE4F1D
:101E4000A591B4918FB7F894EC91111108C0D09579
:101E5000DE23DC938FBFDF91CF911F910895DE2B9E
:101E6000F8CFFC01918D228D892F90E0805C9F4FEF
:101E7000821B91098F7399270895FC01918D828DA2
:101E8000981731F0828DE80FF11D858D90E008954F
:101E90008FEF9FEF0895FC01918D828D981761F06F
:101EA000A28DAE0FBF2FB11D5D968C91928D9F5F5D
:101EB0009F73928F90E008958FEF9FEF0895FC013C
:101EC000538D448D252F30E0842F90E0821B930B9F
:101ED000541710F0CF96089501970895FC01A48D32
:101EE000A80FB92FB11DA35ABF4F2C91848D90E03C
:101EF00001968F739927848FA689B7892C93A0891F
:101F0000B1898C91837080648C93938D848D9813A8
:101F100006C00288F389E02D80818F7D808308953B
:101F2000CF93DF93EC01888D8823B1F0AA89BB8918
:101F3000E889F9898C9185FD03C0808186FD0CC0FC
:101F40000FB607FCF7CF8C9185FFF2CF808185FF1C
:101F5000EDCFCE01C3DFEACFDF91CF910895EF92AD
:101F6000FF920F931F93CF93DF93EC0181E0888F53
:101F70009B8D8C8D98131AC0E889F989808185FF23
:101F800015C09FB7F894EE89FF896083E889F989C5
:101F900080818370806480839FBF81E090E0DF91C7
:101FA000CF911F910F91FF90EF900895F62E0B8D1A
:101FB00010E00F5F1F4F0F731127E02E8C8D8E11D5
:101FC0000BC00FB607FCFACFE889F989808185FF3D
:101FD000F5CFCE0183DFF2CFEB8DEC0FFD2FF11D9E
:101FE000E35AFF4FF0829FB7F8940B8FEA89FB8981
:101FF00080818062D0CFCF92DF92EF92FF921F93C9
:10200000CF93DF93EC016A017B01122FE889F989F4
:1020100082E08083C11481EED806E104F104A1F0CE
:1020200060E079E08DE390E0A70196010E94011C39
:102030002150310941095109569547953795279502
:10204000211580E1380798F0E889F989108260E865
:1020500074E88EE190E0A70196010E94011C2150D6
:102060003109410951095695479537952795EC85D2
:10207000FD853083EE85FF852083188EEC89FD89F0
:102080001083EA89FB89808180618083EA89FB89EA
:10209000808188608083EA89FB8980818068808371
:1020A000EA89FB8980818F7D8083DF91CF911F91A9
:1020B000FF90EF90DF90CF9008951F920F920FB690
:1020C0000F9211240BB60F922F938F939F93EF9340
:1020D000FF93E091F306F091F4068081E091F90618
:1020E000F091FA0682FD1DC090818091FC068F5F01
:1020F0008F732091FD06821741F0E091FC06F0E01D
:10210000ED51F94F958F8093FC06FF91EF919F91D0
:102110008F912F910F900BBE0F900FBE0F901F90BD
:1021200018958081F2CF1F920F920FB60F92112453
:102130000BB60F922F933F934F935F936F937F93C1
:102140008F939F93AF93BF93EF93FF9383EE96E0AC
:10215000C5DEFF91EF91BF91AF919F918F917F91DC
:102160006F915F914F913F912F910F900BBE0F9008
:102170000FBE0F901F901895E3EEF6E013821282C7
:1021800088EE93E0A0E0B0E084839583A683B783D4
:1021900086EE94E09183808385EC90E09587848738
:1021A00084EC90E09787868780EC90E0918B808B21
:1021B00081EC90E0938B828B82EC90E0958B848B0A
:1021C00086EC90E0978B868B118E128E138E148E78
:1021D00008951F920F920FB60F9211240BB60F9213
:1021E0002F938F939F93EF93FF93E0919007F0913C
:1021F00091078081E0919607F091970782FD1DC0BD
:102200009081809199078F5F8F7320919A07821731
:1022100041F0E0919907F0E0E058F84F958F8093F6
:102220009907FF91EF919F918F912F910F900BBE86
:102230000F900FBE0F901F9018958081F2CF1F92C4
:102240000F920FB60F9211240BB60F922F933F935C
:102250004F935F936F937F938F939F93AF93BF93AE
:10226000EF93FF9380E897E039DEFF91EF91BF9104
:10227000AF919F918F917F916F915F914F913F911E
:102280002F910F900BBE0F900FBE0F901F901895BF
:10229000E0E8F7E01382128288EE93E0A0E0B0E07D
:1022A00084839583A683B78386EE94E091838083AD
:1022B0008DEC90E0958784878CEC90E097878687FB
:1022C00088EC90E0918B808B89EC90E0938B828BF3
:1022D0008AEC90E0958B848B8EEC90E0978B868BCC
:1022E000118E128E138E148E08951F920F920FB6B8
:1022F0000F9211240BB60F922F938F939F93EF930E
:10230000FF93E0912D08F0912E088081E091330831
:10231000F091340882FD1DC09081809136088F5F56
:102320008F7320913708821741F0E0913608F0E072
:10233000E35EF74F958F80933608FF91EF919F9161
:102340008F912F910F900BBE0F900FBE0F901F908B
:1023500018958081F2CF1F920F920FB60F92112421
:102360000BB60F922F933F934F935F936F937F938F
:102370008F939F93AF93BF93EF93FF938DE198E07B
:10238000ADDDFF91EF91BF91AF919F918F917F91C3
:102390006F915F914F913F912F910F900BBE0F90D6
:1023A0000FBE0F901F901895EDE1F8E01382128296
:1023B00088EE93E0A0E0B0E084839583A683B783A2
:1023C00086EE94E09183808385ED90E09587848705
:1023D00084ED90E09787868780ED90E0918B808BED
:1023E00081ED90E0938B828B82ED90E0958B848BD6
:1023F00086ED90E0978B868B118E128E138E148E45
:1024000008951F920F920FB60F9211240BB60F92E0
:102410002F938F939F93EF93FF93E091CA08F091CE
:10242000CB088081E091D008F091D10882FD1DC0D9
:1024300090818091D3088F5F8F732091D408821789
:1024400041F0E091D308F0E0E654F74F958F809388
:10245000D308FF91EF919F918F912F910F900BBE19
:102460000F900FBE0F901F9018958081F2CF1F9292
:102470000F920FB60F9211240BB60F922F933F932A
:102480004F935F936F937F938F939F93AF93BF937C
:10249000EF93FF938AEB98E021DDFF91EF91BF91DD
:1024A000AF919F918F917F916F915F914F913F91EC
:1024B0002F910F900BBE0F900FBE0F901F9018958D
:1024C000EAEBF8E01382128288EE93E0A0E0B0E03D
:1024D00084839583A683B78386EE94E0918380837B
:1024E00085E391E09587848784E391E097878687E9
:1024F00080E391E0918B808B81E391E0938B828BE1
:1025000082E391E0958B848B86E391E0978B868BB9
:10251000118E128E138E148E0895AF92BF92CF92A9
:10252000DF92EF92FF920F931F93CF93DF936C0193
:102530007B018B01040F151FEB015E01AE18BF0874
:10254000C017D10759F06991D601ED91FC91019026
:10255000F081E02DC6011995892B79F7C501DF912E
:10256000CF911F910F91FF90EF90DF90CF90BF9090
:10257000AF9008958230A9F028F4882349F0813083
:1025800051F00895843021F1E8F0853039F1089553
:1025900010926E00089580916F008D7F80936F0080
:1025A0000895809170008D7F8093700081E080930A
:1025B000B0008091B100887F84608093B100109258
:1025C000B3000895809171008D7F8093710008950C
:1025D000809172008D7F80937200089580917300C6
:1025E0008D7F809373000895CF93C82F809114023C
:1025F000C8130BC0E0EDF1E084919FEF90931402BB
:10260000B9DF60E08C2FCF91FFCB8FEFF9CF1F9216
:102610000F920FB60F9211240BB60F922F933F9388
:102620004F935F936F937F938F939F93AF93BF93DA
:10263000EF93FF9380915A0990915B09A0915C09F7
:10264000B0915D09892B8A2B8B2BE1F19091570971
:10265000E0915809F0915909808189278083809100
:102660005A0990915B09A0915C09B0915D09181617
:1026700019061A061B069CF480915A0990915B0971
:10268000A0915C09B0915D090197A109B1098093FE
:102690005A0990935B09A0935C09B0935D09FF917F
:1026A000EF91BF91AF919F918F917F916F915F91CA
:1026B0004F913F912F910F900BBE0F900FBE0F9037
:1026C0001F901895809114028FDFE9CF10925F0957
:1026D00010925E098930910508F03AC0FC01882704
:1026E000EB58FC4E8F4F0C94231C7E1387139013D2
:1026F0009913A213A913AC13AF13B51381E090E0A3
:1027000090935F0980935E0983EE96E074CC82E03B
:1027100090E090935F0980935E0980E897E0F6CFA0
:1027200084E090E090935F0980935E098DE198E0EA
:10273000EDCF88E090E090935F0980935E098AEB8B
:1027400098E0E4CF80E190E090935F0980935E0988
:10275000089580E290E0F8CF80E490E0F5CF80E843
:1027600090E090935F0980935E0980915E0990915B
:102770005F099160E9CF26E030E040E855E260E093
:1027800070E090E080E0A2CF26E030E040E052EC44
:1027900061E070E090E080E099DF68EE73E080E057
:1027A00090E033DA83EE96E05CDB892B21F083EE58
:1027B00096E071DBF7CF90E080E00895CF92DF9252
:1027C000EF92FF920F931F93CF93DF936B017A01E8
:1027D000E9011982188283EE96E043DB892BA9F088
:1027E0008601888199818E159F0578F483EE96E0A5
:1027F00052DB8F3F9807A9F3F80181938F018881FD
:102800009981019699838883ECCF90E080E0DF91F5
:10281000CF911F910F91FF90EF90DF90CF9008958F
:102820000F931F93CF93DF93EA018901F89483EE0E
:1028300096E073DE7894F801D183C08390E080E065
:10284000DF91CF911F910F910895CF93DF931F9246
:102850001F92CDB7DEB781E090E09A8389830BDACF
:102860008ADF70E060E090E080E00E94B6050097AB
:1028700021F029813A81232BE1F729813A81232B09
:1028800029F40F900F90DF91CF9108950E9480045A
:102890009C012F5F3F4F2230310578F329813A8127
:1028A000232BE1F7EACF0F931F9321E0FB01208F49
:1028B000009135031091360320913703309138038E
:1028C0004091390350913A0360913B0370913C036E
:1028D000FC014896008F118F228F338F41935193C3
:1028E00061937193E817F907A9F71F910F91089564
:1028F000DB015A962C915A972223B9F04091350367
:10290000509136036091370370913803FC0178963B
:102910009C01205D3F4F4193519361937193E21766
:10292000F307C9F75A961C925A9759962C915997C2
:10293000222399F04091390350913A0360913B036F
:1029400070913C03FC0148964193519361937193BC
:102950008E179F07C9F759961C9208952F923F92A0
:102960004F925F926F927F928F929F92AF92BF929F
:10297000CF92DF92EF92FF920F931F93CF93DF934B
:10298000CDB7DEB7EC970FB6F894DEBF0FBECDBF64
:102990009AA389A37A8F698F4BAF5CAF3E8F2D8F3F
:1029A0001801D80158968C91882381F0A1E8B4E0F1
:1029B000F801C80148964D915D916D917D914193CB
:1029C000519361937193E817F907A9F780919904DE
:1029D000882309F4ADC281E0F101828FA9A1BAA1D7
:1029E00014968D919D910D90BC91A02D8BA79CA7C5
:1029F000ADA7BEA7A9A1BAA18D919D910D90BC9143
:102A0000A02D8FA798ABA9ABBAABA9A1BAA1189674
:102A10008D919D910D90BC91A02D8BAB9CABADABDE
:102A2000BEABFE013D96F8A3EF8F298D3A8D3C8F0A
:102A30002B8F9DE5892E94E0992ECE0101969CA3C3
:102A40008BA3D9011C96BAAFA9AFF1017896F8AF64
:102A5000EFAB540190E9A91AB1088101C12CD12C26
:102A60007601D8016D917D918D919D918D01F5013A
:102A700020813181428153814ED69B01AC01C70137
:102A8000B6016CD56B017C01FCE0AF0EB11C2FA927
:102A900038AD0217130729F7AF8DB8A1CD92DD929B
:102AA000ED92FD92B8A3AF8FEB8DFC8D819191914A
:102AB000A191B191FC8FEB8F8FA398A7A9A7BAA77B
:102AC0008401F4E08F0E911CD8011C962D913D914C
:102AD0004D915C911F976BA57CA58DA59EA51BD6DE
:102AE0002B013C01F80120813181428153816FA586
:102AF00078A989A99AA90FD69B01AC01C301B2019B
:102B00002DD52B013C01D40154962D913D914D9131
:102B10005C9157976BA97CA98DA99EA9FCD59B01B7
:102B2000AC01C301B2011AD5A701960117D59B01CB
:102B3000AC016FA178A589A59AA50FD5EBA1FCA141
:102B40006193719381939193FCA3EBA32B8D3C8DA7
:102B500089AD9AAD2817390709F07BCF81E0D10103
:102B600059968C932D853E854F855889E98DFA8D30
:102B70006081718182819381F0D46B017C0129890C
:102B80003A894B895C89A98DBA8D14966D917D9196
:102B90008D919C911797E1D44B015C012D893E8961
:102BA0004F89588DE98DFA8D608571858285938571
:102BB000D4D46BA37CA38DA39EA38D819E81AF8172
:102BC000B8858FA398A7A9A7BAA789819A81AB8155
:102BD000BC818BA79CA7ADA7BEA789859A85AB852D
:102BE000BC858FA798ABA9ABBAAB05E112E0AD8D60
:102BF000BE8DBA8FA98FEDE5F2E0FC8FEB8F9D01C2
:102C0000285E3F4F3CAB2BAB8B8D9C8D98A38F8F59
:102C1000DC011496BC8FAB8FFC01208D318D428D71
:102C2000538D6FA178A589A59AA575D52B013C0177
:102C3000AF8DB8A12D913D914D915C916BA57CA577
:102C40008DA59EA568D59B01AC01C301B20186D4B8
:102C50002B013C01EB8DFC8D24A535A546A557A580
:102C60006FA578A989A99AA956D59B01AC01C30182
:102C7000B20174D4A98DBA8D58966D937D938D93BE
:102C80009C935B9718A30F8F0C5F1F4FEF8DF8A1DC
:102C9000208D318D428D538DC501B4013CD52B0162
:102CA0003C01AF8DB8A12D913D914D915C91C70133
:102CB000B60131D59B01AC01C301B2014FD42B0148
:102CC0003C01F80124A535A546A557A56BA17CA11B
:102CD0008DA19EA120D59B01AC01C301B2013ED4C0
:102CE000A98DBA8D6D937D938D939D93BA8FA98F86
:102CF000EBA9FCA9AE17BF0709F086CF3A8E298E43
:102D0000CD8CDE8CF8E1CF0ED11C71010D8D1E8DA6
:102D1000D8016D917D918D919D918D01F70121914A
:102D20003191419151917F0119D4D8019C966D93B5
:102D30007D938D939C939F970C151D0549F70BADC3
:102D40001CAD8DEE882E89E0982EF8013C96FC8F04
:102D5000EB8F2D8D3E8D285B3F4F38A32F8FED8C51
:102D6000FE8CF0E3EF0EF11C67015401412C512C55
:102D70003201D6016D917D918D919D916D01F5018D
:102D80002081318142815381C6D49B01AC01C301B2
:102D9000B201E4D32B013C01FCE0AF0EB11C2F8D3E
:102DA00038A12C153D0529F7D8014D925D926D9201
:102DB0007D928D01B4E08B0E911CEB8DFC8DE017A4
:102DC000F10769F6D10158961C9205E114E0F10172
:102DD0007896FC8FEB8F4801F4E08F0E911CA9A12F
:102DE000BAA114962D913D914D915C911797F801E0
:102DF000608D718D828D938D8ED42B013C01A9A1A4
:102E0000BAA12D913D914D915C91F8016081718144
:102E10008281938180D49B01AC01C301B2019ED316
:102E20002B013C01A9A1BAA118962D913D914D917C
:102E30005C911B97F40164A575A586A597A56BD435
:102E40009B01AC01C301B20189D3D7016D937D937E
:102E50008D939D937D01085D11095101412C512CE9
:102E60003201F50161917191819191915F01D801D8
:102E70002D913D914D915C914ED49B01AC01C301CC
:102E8000B2016CD32B013C01085E1F4FEB8DFC8D12
:102E9000EA15FB0531F7D70154964D925D926D927C
:102EA0007C9257978401CE14DF0409F094CFED8C07
:102EB000FE8CB8E1EB0EF11C8701E4E0EE0EF11C94
:102EC000D801D0962D913D914D915C91D397589614
:102ED0006D917D918D919C915B9740D3F8012081FC
:102EE0003181428153813AD3A98DBA8D6D937D93FF
:102EF0008D939D93BA8FA98FAA16BB06E9F6EC961F
:102F00000FB6F894DEBF0FBECDBFDF91CF911F91FA
:102F10000F91FF90EF90DF90CF90BF90AF909F9078
:102F20008F907F906F905F904F903F902F9008957B
:102F3000D1015A962C918D8D9E8D48962223B1F009
:102F400040913503509136036091370370913803F7
:102F5000FC012D8D3E8D205D3F4F41935193619338
:102F60007193E217F307C9F7F101128ED101599657
:102F70002C91222309F4C2CE4091390350913A0397
:102F800060913B0370913C03ED8DFE8D4193519315
:102F900061937193E817F907C9F7F101118EAECE6D
:102FA000FB0191838083089545E95AE06FEF74E057
:102FB0008BE994E007D04DE45AE06FEF74E08BE9C1
:102FC00094E004C0FC01158E148E08952F923F9258
:102FD0004F925F926F927F928F929F92AF92BF9229
:102FE000CF92DF92EF92FF920F931F93CF93DF93D5
:102FF00000D000D01F921F92CDB7DEB77C016B01CD
:103000008A0181E090E0F701918F808F84E090E069
:103010009C838B8349EF242E33243A943E822D8265
:103020008D819E816B817C81D9D34B018AEF9FEF8B
:103030009E838D838D819E816B817C81CFD35B014B
:10304000EBEFFFEFFE83ED838D819E816B817C81B1
:10305000C5D3FB018CEF9FEF9C838B8387E090E0CF
:103060009E838D838D819E816B817C81B7D39B01F3
:1030700086E090E09E838D838D819E816B817C8133
:10308000ADD33B0185E090E09E838D838D819E8151
:103090006B817C81A3D32B013E822D828D819E8109
:1030A0006B817C819BD31B018AEF9FEF9E838D8375
:1030B0008D819E816B817C8191D378876F838BEF2B
:1030C0009FEF9E838D838D819E816B817C8186D3D2
:1030D0009EEF89169FEF990609F05AC08EEFA81649
:1030E0008FEFB80609F072C0329609F06FC02E3F1C
:1030F0003F4F09F06BC0FEEF6F16FFEF7F0609F040
:1031000065C08EEF48168FEF580609F05FC02A940D
:10311000232809F05BC0EF81F885319709F056C08C
:103120006130710509F052C0F701178A168A1A82B8
:10313000198289819A81892B09F44EC083E090E03D
:10314000F701958B848B88E090E0F7019183808371
:1031500080E190E0938382839583848380E290E092
:1031600097838683138E128E11861086268937895F
:10317000F601868997892230310591F50297A1F1F0
:1031800081E090E0F80195A784A717A616A635C0A0
:1031900089208094D9F4AB20A094C1F43196B1F485
:1031A0002F3F3F4F99F46720609481F4452040946D
:1031B00069F42A94232851F4EF81F885319731F48A
:1031C0006130710519F481E090E002C082E090E086
:1031D000F701978B868BABCFF701158A148AB3CF93
:1031E0008230910509F06CC183E090E0F80195A769
:1031F00084A781E090E097A786A7F6018489958946
:103200008230910509F063C123E030E0F80131A775
:1032100020A793A782A7F601208D318DF701808D1D
:10322000918D2817390709F066C182E090E0F80116
:1032300091AB80AB13AA12AAF60120813181F7016C
:10324000808191812817390709F058C182E090E008
:10325000F8019183808313821282F60122813381E7
:10326000F701828193812817390709F04AC182E06A
:1032700090E0F8019583848317821682F6012481F9
:103280003581F701848195812817390709F03CC100
:1032900082E090E0F8019187808713861286F6011C
:1032A00026813781F701868197812817390709F030
:1032B0002EC182E090E0F8019587848717861686F4
:1032C000F601828D938D009709F42AC1F701228DB2
:1032D000338D8217930709F01DC182E090E0F80159
:1032E00095AB84AB17AA16AAF60120853185F701A4
:1032F000808591852817390709F00FC182E090E099
:10330000F801918B808B138A128A80E290E0F7019A
:103310009387828795878487F60182859385809736
:1033200009F006C182E090E0F801958B848B178A42
:10333000168A82E090E0918F808F138E128E80E14A
:1033400090E0F70197878687F601868597854097F5
:1033500009F4F1C081E090E0F801958F848F178E19
:10336000168E80E190E0F701918B808BF6018089C9
:103370009189409709F4E2C081E090E0F80191A3BF
:1033800080A313A212A280E190E0F701938B828BBD
:10339000F60182899389409709F0D3C082E090E0DA
:1033A000F80195A384A317A216A28091990A90917F
:1033B0009A0AF70191A380A3F60120A131A18217F7
:1033C000930709F4C1C083E090E0F80191AF80AFAA
:1033D00013AE12AE85E090E095AF84AF17AE16AE97
:1033E0006091C3047091C4048091C5049091C60497
:1033F00020E030E040E05FE38ED1AA24A394B12C1A
:1034000020E030E0A9010ED1882311F0B12CA12CCD
:10341000F701B5A2A4A2F60184A195A1D801A05CF0
:10342000BF4FF801EE5BFF4F8A159B0509F48FC073
:1034300081E090E08D939C931182108260916009ED
:10344000709161098091620990916309AA24A39403
:10345000B12C20E030E0A901E5D0882311F0B12C97
:10346000A12CF701B7A2A6A2F60186A197A1D801C7
:10347000AC5BBF4FF801EA5BFF4F8A159B0509F46F
:1034800069C084E090E08D939C931182108228960D
:103490000FB6F894DEBF0FBECDBFDF91CF911F9165
:1034A0000F91FF90EF90DF90CF90BF90AF909F90E3
:1034B0008F907F906F905F904F903F902F900895E6
:1034C0002817390709F05CCE82E090E05BCEF70167
:1034D000248935892330310541F482E090E0F801F8
:1034E00091A780A713A612A696CE82179307A9F3D9
:1034F00081E090E0F4CF81E090E099CE81E090E02F
:10350000A7CE81E090E0B5CE81E090E0C3CE81E02F
:1035100090E0D1CE81E090E0E2CE81E090E0F0CE8C
:1035200085E090E0F80195AB84AB17AA16AAE9CE26
:1035300083E090E0F9CE82E090E00ECF82E090E070
:103540001DCF81E090E02CCF82E090E03ECF82E082
:1035500090E070CF82E090E096CF5058BB27AA272A
:103560000ED09FC090D030F095D020F031F49F3F26
:1035700011F41EF485C00EF4E095E7FB7BC0E92F43
:10358000A1D080F3BA17620773078407950718F074
:1035900071F49EF5B9C00EF4E0950B2EBA2FA02D54
:1035A0000B01B90190010C01CA01A0011124FF27F0
:1035B000591B99F0593F50F4503E68F11A16F040EB
:1035C000A22F232F342F4427585FF3CF46953795EA
:1035D0002795A795F0405395C9F77EF41F16BA0BAF
:1035E000620B730B840BBAF09150A1F0FF0FBB1F5D
:1035F000661F771F881FC2F70EC0BA0F621F731FA6
:10360000841F48F4879577956795B795F7959E3F02
:1036100008F0B3CF9395880F08F09927EE0F979590
:103620008795089503D008F481E00895990F000864
:10363000550FAA0BE0E8FEEF16161706E807F90784
:10364000C0F012161306E407F50798F0621B730B1F
:10365000840B950B39F40A2661F0232B242B252BA0
:1036600021F408950A2609F4A140A6958FEF811D43
:10367000811D089597F99F6780E870E060E00895E4
:103680009FEF80EC089500240A941616170618067A
:103690000906089500240A94121613061406050656
:1036A0000895092E0394000C11F4882352F0BB0FE7
:1036B00040F4BF2B11F460FF04C06F5F7F4F8F4F4A
:1036C0009F4F089557FD9058440F551F59F05F3F85
:1036D00071F04795880F97FB991F61F09F3F79F034
:1036E00087950895121613061406551FF2CF4695B6
:1036F000F1DF08C0161617061806991FF1CF869538
:103700007105610508940895E894BB27662777271B
:10371000CB0197F908950BD0C4CFB5DF28F0BADFFD
:1037200018F0952309F0A6CFABCF1124EECFCADF56
:10373000A0F3959FD1F3950F50E0551F629FF001C4
:10374000729FBB27F00DB11D639FAA27F00DB11D1D
:10375000AA1F649F6627B00DA11D661F829F2227A6
:10376000B00DA11D621F739FB00DA11D621F839F2D
:10377000A00D611D221F749F3327A00D611D231F03
:10378000849F600D211D822F762F6A2F11249F5751
:1037900050408AF0E1F088234AF0EE0FFF1FBB1F74
:1037A000661F771F881F91505040A9F79E3F510513
:1037B00070F060CFAACF5F3FECF3983EDCF38695C4
:1037C00077956795B795F795E7959F5FC1F7FE2BBE
:1037D000880F911D9695879597F9089597FB072E69
:1037E00016F4009406D077FD08D035D007FC05D03C
:1037F0003EF4909581959F4F0895709561957F4F08
:103800000895A1E21A2EAA1BBB1BFD010DC0AA1F21
:10381000BB1FEE1FFF1FA217B307E407F50720F039
:10382000A21BB30BE40BF50B661F771F881F991FB4
:103830001A9469F760957095809590959B01AC01FD
:10384000BD01CF010895EE0FFF1F881F8BBF0790AA
:10385000F691E02D1994AA1BBB1B51E107C0AA1FCA
:10386000BB1FA617B70710F0A61BB70B881F991F21
:103870005A95A9F780959095BC01CD010895FB015B
:10388000DC0102C001900D9241505040D8F70895DC
:04389000F894FFCFDA
:103894000100EB093D0C3D0C3D0C3D0C3D0C3D0C79
:1038A4003D0C3D0CFF954BA0371BD49C321B88A1CB
:1038B400243268932098F35A23EFCF36201B88A133
:1038C40024F711BC9F954BA0371BD49C329387607F
:1038D400A51DE4232098F35A23DBE979209387601C
:1038E400A5D83062A0954BA0371BD49C32F94BA0CD
:1038F400371BD49C32888AA124D16493200AF65AB7
:1039040023FBC536204F74A1247219BC9FF94BA028
:10391400371BD49C324B7960A532E3232053465B9A
:103924002382C879208F4360A571DF61A0F94BA081
:10393400371BD49C32A73676337DE3702ED61C78A1
:1039440020CC6A621C9F27281F59660C1C7DE370DB
:103954002E6FAEEB291A70909B4AC5EA15FEEE3F16
:103964001C17D19617D61C78201A70909BA7367610
:10397400337DE3702E50702CA197BCFB1BCC6A6284
:103984001C4AC5EA157DE3702E6FAEEB29EBB62D0C
:103994009C2F4E96179F27281FFEEE3F1C50702C1D
:1039A400A1EBB62D9CA73676337DE3702E59660CB9
:1039B4001C17D1961797BCFB1B2F4E96177DE370EF
:1039C4002E6FAEEB29000000000000000000008014
:1039D4003F000000000000000000000000000000A4
:1039E40000000000000AD7233C0000803F000000D4
:1039F40000000000000000000000000000000000C3
:103A040000000000000000803F00000000000000F3
:103A1400000000000000000000000000000AD7239E
:103A24003C0000803F000000000000000000000097
:103A34000000000000000000000000000000008002
:103A44003F00000000000000000000000000000033
:103A540000000000000AD7233C0000803F000080E3
:103A64003F00000000000000000000000000000013
:103A74000000000000000000000000803F00000083
:103A84000000000000000000000000000000000032
:103A940000000000000000803F0000000000000063
:103AA4000000000000CF6B07377498D33A00000081
:103AB4000000000000000000000000000000000002
:103AC4000000000000CF6B07377498D33A00000061
:103AD40000000000000000000000000000000000E2
:103AE4000000000000F12E3A35AC741139000000DA
:103AF40000000000000000000000000000000000C2
:103B040000000000000000000000000000000000B1
:103B140000000000000000000000000000000000A1
:103B24000000000000000000000100000000000090
:103B3400000000000000000000000000000000027F
:103B4400000200000000000000FE0400000000006D
:103B540000000000008000050503050505FF0507BA
:103B6400FF05050505040402040202060402FF021F
:103B7400040500000000AF0F8D125F0F900F310F8E
:103B84004B0F3D0F41746D656C2D3E41565200083C
:103B94000010001000200040002000400010001021
:103BA40000100000000100010000000000F4040007
:083BB400000000000000000009
:00000001FF
